:020000040800F2
:100000009006002001010008533B0008CB2E000899
:10001000513B0008C51100086D44000800000000B5
:10002000000000000000000000000000793D000812
:100030007516000800000000753B000849400008E4
:100040001B0100081B0100081B0100081B01000820
:100050001B0100081B0100081B0100081B01000810
:100060001B0100081B0100081B0100081B01000800
:100070001B0100081B0100081B0100081B010008F0
:100080001B0100081B0100081B0100081B010008E0
:100090001B0100081B0100081B0100081B010008D0
:1000A0001B0100081B0100081B0100081B010008C0
:1000B0001B0100081B0100081B0100081B010008B0
:1000C0001B0100081B0100081B0100081B010008A0
:1000D0001B010008614400081B0100081B01000807
:1000E0001B0100081B0100081B010008DFF80CD0F1
:1000F00000F066FC004800477150000890060020A0
:100100000648804706480047FEE7FEE7FEE7FEE7B1
:10011000FEE7FEE7FEE7FEE7FEE7FEE7BF4000087A
:10012000ED000008202A04DB203A21FA02F0002129
:10013000704721FA02F3D040C2F1200291400843F7
:1001400019467047004870479452000810B504469D
:10015000FFF7F8FF0068005D00F0010010BDA0F19E
:100160004101192900D82030704740EA01039B075C
:1001700003D009E008C9121F08C0042AFAD203E01C
:1001800011F8013B00F8013B521EF9D27047D2B280
:1001900001E000F8012B491EFBD270470022F6E770
:1001A00010B513460A4604461946FFF7F0FF2046ED
:1001B00010BD10B5044604E00B7800F8013B03B114
:1001C000491C521EF8D2204610BDCAB2401E10F87B
:1001D000011F8A4202D00029F9D100207047421C39
:1001E00010F8011B0029FBD1801A7047034611F853
:1001F000012B00F8012B002AF9D11846704730B5C1
:1002000005460020034600E05B1C934205D2EC5CEF
:10021000C85C201A01D1002CF6D130BD10B508E021
:100220000A4602E0A34208D0521C1378002BF9D1F1
:10023000401C0478002CF3D1002010BDF0B480EAFB
:100240000102D40F4200B2EB410F02D2024608462F
:1002500011464A0042D0C30DDDB2C1F3C752AD1AF8
:10026000202D35DAC1F3160141F4000204B15242E7
:10027000C5F1200602FA06F12A411044B3EBD05F23
:1002800023D0C4B1012DA0EBC35009DCF0BC4FF06A
:10029000004202EAC352DBB200F5000000F0AAB946
:1002A000400000F1807000EBC350A0F1807040EA84
:1002B000D170490009E0490841EAC071A0EBC35080
:1002C00000F50000400800EBC350F0BC00F089B915
:1002D0006142012202EB4101001BF6E7F0BC7047CE
:1002E00081F00041AAE780F00040A7E780EA010220
:1002F00010B502F00043400022D04A001FD0010E8A
:1003000001EB1261C0F35600C2F3560240F4000044
:1003100042F40002A0FB022000047F39140400D044
:10032000401C50EA124001D44000491EC2B20C06E3
:1003300004EBD010401C4008802A02D003E00020CB
:1003400010BD20F00100002900DA0020184310BD84
:1003500030B480EA010202F0004530F0004221F0A2
:10036000004013D090B1C30DD40DC2F31601C0F3F9
:100370001600E41A41F4000140F400027D34914279
:1003800001D3641C00E04900002C02DA30BC0020DC
:1003900070474FF400000023914201D3891A0343B0
:1003A00040084FEA4101F7D151B1914202D14FF0DB
:1003B000004105E002D24FF0010101E06FF00101C0
:1003C00003EBC450284430BC00F00BB9420005D008
:1003D000C0F3C7525242914201DC0020704700EB4B
:1003E000C150704796230022114600F003B920F057
:1003F0000040C10DC0F3160040F400007F2901DA6F
:1004000000207047962903DCC1F19601C84070476F
:1004100096398840704700F0004230F000400AD022
:10042000C10D01F56071C0F3160042EA0151C20826
:1004300040071143704700200146704701F0004318
:1004400030B421F0004150EA010206D00A0DA2F5B5
:100450006072C1F31301002A02DC30BC0020704737
:10046000440F44EAC104C100E01830BC00EBC250A4
:1004700000F0B7B8002801DBC0F10040002901DB23
:10048000C1F1004181427047002801DBC0F100400A
:10049000002901DBC1F100418842704730B50B46AD
:1004A000014600202022012409E021FA02F59D42A4
:1004B00005D303FA02F5491B04FA02F52844151E78
:1004C000A2F10102F1DC30BD2DE9F05F054600200C
:1004D00092469B4688460646814640241BE02846B5
:1004E000414647462246FFF71DFE53465A46C01A6C
:1004F000914110D311461846224600F073FA2D1A86
:1005000067EB01084F4622460120002100F06AFAFD
:1005100017EB00094E41201EA4F10104DFDC484620
:1005200031462A464346BDE8F09F00000FB4002341
:1005300000B589B00CA900910B996FF00042CB6017
:100540001E4B06931E4B07930423CDE901321D4A2F
:10055000089202466B46002000F0FAFA09B05DF8F6
:1005600014FB70B586B006464FF0FF300091CDE920
:100570000101002015460C4604903246694604A845
:10058000FFF7D4FF02460498211825B108B10846A8
:1005900000E020462860049800280DD0002A02DDE3
:1005A0000098884208D0081B0094CDE90104324627
:1005B000694604A8FFF7BAFF06B070BD890D0008B0
:1005C000A70D00084D0100087CB50023CDE90033DC
:1005D00005466846FFF7C5FF6946284603F0FEFF5B
:1005E0007CBD0029A8BF7047401C490008BF20F00F
:1005F0000100704710B4B0FA80FC00FA0CF050EA29
:10060000010404BF10BC704749B1CCF1200421FAA9
:1006100004F411FA0CF118BF012121430843A3EBA4
:100620000C01CB1D4FEA00614FEA102042BF0020B1
:1006300010BC704700EBC35010440029A4BF10BC8D
:100640007047401C490008BF20F0010010BC7047F3
:100650002DE9FE4F804681EA0300C00F0C46009052
:1006600021F0004123F00045B8EB0200A94105D27A
:100670004046214690461C460B46024623F0004069
:10068000104347D0270DC7F30A00C3F30A51029065
:10069000401A019040286BDAC3F3130040F4801B2A
:1006A0000098924620B10023D2EB030A63EB0B0BB8
:1006B00001985946C0F14002504600F093F90646B1
:1006C0000D4650465946019A00F09BF910EB080080
:1006D0006141002487EA115284EAE7731A4340D04B
:1006E000009A62B3019A012A4FEA075215DC001BF7
:1006F00061EB02014FF0004202EA0752CDE90042ED
:10070000001C41F5801132462B4600F06CFB03B013
:10071000BDE8F08F40462146F9E7001B61EB02017E
:10072000001C41F5801300185B412018A2F500174A
:1007300047EB030140EAD570B6196D4111E06D0831
:100740004FEA360645EAC0754FEA0752001B61EBD7
:100750000201001C41F5801149084FEA30000019E0
:10076000514132462B4603B0BDE8F04F00F02CBBA0
:100770000098012240000023D0EB020263EBE073FB
:10078000009821464FEAE074B8EB000061EB0401E9
:10079000E9E783F000435BE781F0004158E72DE98A
:1007A000FE4F81EA030404F0004421F0004100946C
:1007B0004FF0000B23F0004350EA01045ED052EAF0
:1007C00003045BD0C3F30A54C1F30A552C44A4F2CA
:1007D000F3340194A0FB0254C1F3130141F48011DE
:1007E000C3F3130343F4801301FB024400FB034EE5
:1007F000840A970A44EA815447EA8357A4FB0768AE
:1008000002958D0A05FB07854FEA932C04FB0C54D7
:100810002705029D4FEA065847EA1637B5EB08054B
:100820006EEB070C870E920E47EA811742EA83129D
:10083000A7FB0201B6EB0B0164EB00042B0D43EAAE
:100840000C335E1844EB1C50DA465146E7FB0201BC
:10085000C5F313044FEA0B3343EA14534FEA04324F
:10086000019C43EA0603A4F10C040294009CCDE928
:1008700000B400F0B8FA03B0BDE8F08F00200146E4
:10088000F9E72DE9F04D81EA030404F0004B21F073
:10089000004514464FF0000A23F0004150EA0502DB
:1008A00020D054EA01021DD0C5F30A570246C5F311
:1008B0001303C1F31300C1F30A5640F4801543F447
:1008C0008013A7EB0608101BD64608F2FD3873EB21
:1008D000050002D308F1010801E092185B41B8F16C
:1008E000000F03DA00200146BDE8F08D00204FF430
:1008F0008011064684460EE0171B73EB050705D3EF
:10090000121B63EB050306434CEA010C49084FEA4E
:10091000300092185B4150EA0107EDD152EA030022
:1009200012D082EA040083EA0501084305D0101BB7
:10093000AB4106D20122002306E000224FF0004323
:1009400002E06FF0010253101AEB06004CEB085165
:1009500010EB0A0041EB0B01BDE8F04D00F034BA9A
:10096000C1F30A52C1F3130140F2FF3341F4801185
:100970009A4202DA00200146704740F233439A421D
:10098000A2F2334202DC5242FFF7CCBB00F02AB89D
:1009900030B5041E71F1000404DB4FF00044404206
:1009A00064EB0101141E73F1000405DB1C464FF0DB
:1009B0000043524263EB0403994208BF904230BDAA
:1009C000064C074D06E0E06840F0010394E807009C
:1009D00098471034AC42F6D3FFF78CFB0053000865
:1009E00020530008202A04DB203A00FA02F10020FC
:1009F00070479140C2F1200320FA03F3194390405D
:100A00007047202A06DBCB17203A41FA02F043EA6E
:100A1000E07306E041FA02F3D040C2F120029140B7
:100A200008431946704700002DE9FF4F087883B04E
:100A30009946FF2805D0491C2D2804D00024002009
:100A400008E000200BE00124F9E700EB800003EB55
:100A50004000491C0B78FF2BF7D104B14042002322
:100A60000293147819461D462D2C01D02B2C04D14D
:100A7000521C2D2C13D000240294AA461478FF2C6B
:100A80000FD00A25A3FB057801FB05814FF0000C70
:100A900003FB0C11521CE3194AEB0101EEE70124A0
:100AA000EAE7814453EA010002D019F5C87F06DA6B
:100AB00003980021C0E9001107B0BDE8F08F0025C0
:100AC000AE4E2F46DFF8B882184600F0DAF9CDE9CD
:100AD0000001B9F1000002DAC9F1000400E00446A7
:100AE0000023A74A1AEB030B42EB045A12E0E0077B
:100AF00007D02A46334638464146FFF750FE0746A0
:100B000088462A46334610461946FFF748FE0546F2
:100B10000E466410002CEAD1DDE90001B9F1000FA6
:100B20005A46534606DAFFF7ACFE3A464346FFF70D
:100B3000A8FE05E0FFF733FE3A464346FFF72FFED7
:100B4000029A0AB181F00041039AC2E90001B3E7B9
:100B50002DE9FF4F1F468DB0D7E901464FF0FF3812
:100B60002E2045464FF000090B90B9696D1C0E9878
:100B70008847396A824688470028F6D1BAF1FF3F94
:100B80000AD024F4D064002E11DDBAF12B0F08D066
:100B9000BAF12D0F0BD102E0404611B08DE744F4BD
:100BA0008064B9696D1C0E9888478246761E694636
:100BB000600501D52D2000E02B208DF8000001F10B
:100BC000010B0DF1200809E0B9696D1C0E988847EA
:100BD00082460F9844F40074761E0560002E02DDF4
:100BE000BAF1300FF0D00B998A453ED144F0800421
:100BF00006E00F99681CA9F1010944F4007408602B
:100C0000B9696D1C761E0E98884782463028F0D050
:100C10002BE00B998A4505D1200603D444F08004CB
:100C2000761E18E0504603F01DFE08B30DF11301C7
:100C3000761E44F400748B4508D2AAF130000BF8FC
:100C4000010B200607D5A9F1010003E0200602D41C
:100C500009F101008146A00502D50F99681C0860C2
:100C6000B9696D1C0E9888478246002ED1DC53E08E
:100C7000002E51DDBAF1650F02D0BAF1450F4BD10C
:100C8000A00549D5B9696D1C24F44074761E0E98F0
:100C900088478246002E0CDD2B2804D0BAF12D0F98
:100CA00007D144F48074B9696D1C0E988847824658
:100CB000761EE00501D52D2100E02B2108F8011B4F
:100CC000CDF82C8021E00DF12901761E44F400744A
:100CD00088450CD2AAF1300010F0FF0088F800001F
:100CE00002D10B99884509D908F1010806E0E00511
:100CF00001D5244801E042F20F708146B9696D1CAC
:100D00000E98884782460F980560002E04DD5046F5
:100D100003F0A8FD0028D6D1F9690E988847FF2076
:100D20008BF8000088F800000020069007904B46E2
:100D30006A4608A906A8FFF777FEA00502D46FF05F
:100D400001002AE714F0240F0AD0E00714D1DDE9EE
:100D500006123868031D3B600068C0E900120BE012
:100D6000DDE90601FFF76AFB0146E00704D13868B8
:100D7000021D3A600068016028460EE7000014403A
:100D80000000F03FF1D8FFFF426842B1016811F85E
:100D9000013B23B1521EC0E90012184670470121E1
:100DA000C160881E704742685AB1C368016843B980
:100DB00083688B4205D0491E521CC0E900120020F6
:100DC00070474FF0FF30704710B5141E73F10004E8
:100DD00008DA401C41F1000192185B411A4301D12D
:100DE00020F0010010BD2DE9F04D92469B4611B157
:100DF000B1FA81F202E0B0FA80F220329046FFF7B9
:100E0000F1FD04460F4640EA0A0041EA0B01534651
:100E10005A46084313D0114653EA010019D0C8F1CD
:100E200040025046FFF77EF905460E4650465946A9
:100E30004246FFF7D7FD084305D0012004E02046D5
:100E40003946BDE8F08D0020054346EAE0762C43A4
:100E500037430A986305E40AA0EB08000022FD0A64
:100E600044EA47540A3002D500200146E9E701056B
:100E700010196941DDE9084500196941BDE8F04DE7
:100E8000A2E70EB540F2334202920022CDE90022E1
:100E90001346FFF7A8FF03B000BD000030B5041EE5
:100EA00071F1000404DB4FF00044404264EB0101A7
:100EB000141E73F1000405DB1C464FF00043524240
:100EC00063EB04038B4208BF824230BD00207047B1
:100ED00070B521F0004303430CD0C1F30A55002440
:100EE000D5EB040564EB0403D617AD1AB34102DB5E
:100EF0000020014670BD201841EB025170BD00007A
:100F000070B5044600688168C943C90717D1816874
:100F100021F00101816001F037F805460AE000BFC9
:100F200001F032F8401B022804D920688068C043D1
:100F3000C00706D020688068C043C007F0D00020FA
:100F400070BDA06A40F01000A062E06A40F00100AD
:100F5000E062012070BD0000F8B50026044600964E
:100F600000688168C943C9072DD0816841F001013B
:100F70008160164816490068B0FBF1F000E0401EA1
:100F800000900028FBD100F0FFFF054616E000BFEF
:100F900000F0FAFF401B022810D920688068C04387
:100FA000C0070BD0A06A40F01000A062E06A40F0D9
:100FB0000100E06284F824600120F8BD20688068A8
:100FC000C043C007E4D10020F8BD00001400002099
:100FD00040420F0010B50DA103F0F8FF08B100204A
:100FE00010BD0B4C207848B10020207040B109A002
:100FF00003F0D4FA00F0C8FF606004E00120F4E7D9
:101000000CA003F0CBFA012010BD00006164630066
:10101000340000203E3E20414443204D65617375FD
:1010200072656D656E743A204F4E202835487A29D6
:101030000D0A00003E3E20414443204D656173751A
:1010400072656D656E743A204F46460D0A000000C9
:1010500010B516490A78002A26D04A68821AC82A8A
:1010600022D34860124800F091FD0A21104800F098
:10107000EFFCA0B90E4800F02DFC0446FFF7B2F9D2
:101080000C49FFF733F96FF00B01FFF79FF9FFF7FA
:10109000C2F902460B46214607A003F07FFABDE8DD
:1010A0001040034800F0D2BD10BD00003400002005
:1010B00064000020333353403E3E205041302041F5
:1010C0004443205261773A20256C752C20566F6C72
:1010D000746167653A20252E326620560D0A00009D
:1010E0000B4910B50978012901D000F023FA09490C
:1010F000FFF7FCF8FFF77BF980B2B0F5805F01D312
:1011000040F6FF70BDE81040002102F023BC000053
:1011100020000020CDCC234210B504461CA103F0D2
:1011200055FF60B11BA1204603F050FF88B1FFF7C7
:1011300009F800682178405C20280CD010E002F00B
:10114000D9FD03F01FF8002002F0FEFB12A003F00F
:1011500025FA012010BD13A12046FFF75FF808B162
:10116000002010BD204603F01CFFFFF767F902F0D6
:10117000EBFB02F0BFFD03F005F802F01BFBFFF7ED
:101180004AF902460B4609A003F008FAE1E700001D
:1011900073000000700000003E3E2053544F500D7D
:1011A0000A0000003E732B2D000000003E3E20533D
:1011B00065742053706565643A20252E31660D0AEA
:1011C00000000000FEE7000030B585B00F480024A5
:1011D0000294816941F00401816180690C4D00F045
:1011E0000400049008200090012001900220039048
:1011F0006946284600F0C6FD01220821284600F075
:10120000BEFE04480470447005B030BD00100240BA
:10121000000801403C000020F8B5054628A103F075
:10122000D5FE294C58B129A1284603F0CFFE30B194
:10123000022227A12846FEF7E2FFC8B128E00020DD
:101240006070207848B100212248217039B1002215
:10125000082100F094FE20A006E00121F4E701221D
:10126000082100F08CFE20A003F098F90120F8BDC1
:101270002846FEF7B4FF02280AD9AD1C6946284665
:1012800003F050FF06460098A84201D0007808B14C
:101290000020F8BD0120607000F076FE6060174904
:1012A0003046FFF723F8FFF7A2F8A0603046FFF7BB
:1012B000B2F802460B4612A003F070F9D6E7000020
:1012C00062757A7A657200003C00002062000000BE
:1012D00062740000000801403E3E2042757A7A6543
:1012E000723A204F4E0D0A003E3E2042757A7A65D2
:1012F000723A204F46460D0A0000000000007A4472
:101300003E3E2042757A7A65722054696D65723A64
:101310002057696C6C2072696E6720616674657213
:1013200020252E3166207365636F6E647320666FAF
:10133000722031207365636F6E640D0A0000000037
:1013400010B50D4C6178002915D06168421AA1686A
:101350008A4210D3094801F57A718A4205D20022E7
:10136000BDE81040082100F00ABE0122082100F06B
:1013700006FE0020607010BD3C0000200008014007
:1013800010B500F093F80146BDE8104001A003F04D
:1013900005B900003E3E205B43414C20444F4E4582
:1013A0005D20256420706F696E74732E0D0A000035
:1013B00010B503F0F6FDFFF741F80A4C217851B162
:1013C0000146606800F05CF80020207006A0BDE8CF
:1013D000104003F0E3B8606002F0B6FA012020701C
:1013E0000CA0F4E72C0000203E3E205265636F7293
:1013F0006465642E20496E707574206E6578742063
:10140000436F6D6D616E64206F722027636F273AA2
:101410000D0A00003E3E204D6561737572652061C6
:101420006E6420696E7075742041435455414C20A0
:1014300076616C75653A0D0A00000000054910B52B
:101440000020087000F00EF9BDE8104002A003F083
:10145000A5B800002C0000203E3E205B43414C20FC
:1014600053544152545D20496E70757420436F6D22
:101470006D616E642056616C75653A0D0A0000005E
:1014800030B5084B5A68142A01DB002030BD064CE9
:1014900004EBC205686044F83210521C01205A6007
:1014A00030BD000018000020D00100202DE9F05FC1
:1014B0001E494868022802DA0020BDE8F09FDFF8E4
:1014C00070808B4682460025A0F1010916E00024B9
:1014D000AAEB05077F1E0EE008EBC40658F834009F
:1014E000B168FEF7D1FF05D296E80F00C6E9020108
:1014F000C6E90023641CA742EEDC6D1C4D45E6DB0B
:101500000B4BDBF804000021A3F1A004CBF8000092
:1015100009E000BF03EBC10604EBC102D6E90056A7
:10152000C2E90056491C8142F4DBC6E718000020DE
:10153000D00100202DE9F041384E8046384F306808
:10154000384D022868DB40462968FEF793FF02D831
:101550006868BDE8F081306805EBC00050F8081CF1
:101560004046FEF791FF1FD8306805EBC00070E9D8
:101570000415D0E902462046FEF7B2FEB84201DA71
:101580003046E6E7074629463046FEF7A9FE3946CB
:10159000FEF7DEFE054621464046FEF7A1FE29463F
:1015A000FEF7A4FE31462EE0002431E055F8341059
:1015B0004046FEF769FF2AD805EBC4008168404623
:1015C000FEF758FF23D255F8346005EBC4003146CE
:1015D000D0E90142C5681046FEF782FEB84201DA42
:1015E0002046B6E7074631464046FEF779FE3946C3
:1015F000FEF7AEFE064621462846FEF771FE31464E
:10160000FEF774FE2146BDE8F041FEF717BE641CEC
:101610003068401E8442C9DB40469AE7180000202B
:101620006F12833A3001002070B50B480A210B4B32
:1016300001600B4A002003F1280400BF53F820503A
:1016400042F8305054F8205002EBC006401C756040
:101650008842F3DB70BD00001800002074510008C0
:10166000300100200249002048600146FFF708BF12
:10167000180000207047000000224FF480510148FC
:1016800000F07DBC000C014070B506461AA103F0C5
:101690009DFC1A4C4FF4805558B119A1304603F007
:1016A00095FC68B117A1304603F090FC88B100208A
:1016B00070BD00222946204600F061FC13A005E021
:1016C00001222946204600F05AFC18A002F066FFCD
:1016D0000DE02946204600F04AFC2946204600F04D
:1016E00041FC012805D004A11AA002F057FF0120F7
:1016F00070BD03A1F8E7000043570000000C014053
:10170000434357006368616E676500003E3E2044B6
:101710006972656374696F6E3A20436C6F636B77AF
:1017200069736520284357290D0A00003E3E204476
:101730006972656374696F6E3A20436F756E746584
:10174000722D436C6F636B77697365202843435731
:10175000290D0A003E3E20446972656374696F6E0C
:1017600020546F67676C65643A2025730D0A00008A
:1017700072B6FEE72DE9F0410025134E134F2C46BB
:10178000134800F003FA0A21114800F061F970B91A
:101790000F4800F09FF8FEF725FE3146FEF7A6FD44
:1017A0003946FEF7D5FD2946FEF748FD05460A20D5
:1017B00000F0D6FA641C142CE2DB2846BDE8F041A8
:1017C0000449FEF7C5BD00003333534000F07F45A8
:1017D000640000200000A041F8B50024009490F8B7
:1017E00024202546012A12D0012280F824204A68AC
:1017F0001F23072A0DD20668776B521E02EB820266
:1018000093409F430B6893401F43776319E0022086
:10181000F8BD06680D2A0AD2376BD21F02EB82028E
:1018200093409F430B6893401F43376309E0F76A77
:101830000D3A02EB820293409F430B6893401F4393
:10184000F7620A68072306680A2A0AD3F7680A3A81
:1018500002EB420293409F438B6893401F43F76023
:1018600008E0376902EB420293409F438B68934044
:101870001F4337610A68102A01D0112A20D1124B68
:1018800002689A4217D193681B0219D4936843F4F3
:10189000000393600968102912D10C490C4A0968A9
:1018A000B1FBF2F101EB8101490000E0491E00911A
:1018B0000029FBD104E0816A41F02001816201240A
:1018C00080F824502046F8BD002401401400002078
:1018D00040420F000068C06C704700002DE9F041E5
:1018E0004FF0000704003D467ED0A06A002628B9CC
:1018F000E66284F82460204600F07EF82046FFF778
:10190000FFFAA16AC90600D420B1A06A40F0100015
:10191000A06269E0A16A21F4885141F00201A1624C
:101920006268E169237B0A4347EA43010A43A168ED
:101930004FF48077B94209D0012907D05FF0000148
:1019400094F814C0BCF1010F02D00AE03946F7E761
:10195000F3B1A36A43F02003A362E36A43F00103F7
:10196000E3622368D3F804C02CF4694C4CEA010C00
:10197000C3F804C021688B68DFF870C003EA0C0369
:1019800013438B60A168B9420BD0012909D00CE048
:10199000DFF85CC0A3690CEB43330B4343F40061F5
:1019A000DFE7218A0D05A5F580152168CB6A23F4B0
:1019B00070032B43CB62216889680E4B194091421A
:1019C00008D1E662A16A21F0020141F00101A162A1
:1019D000BDE8F081A06A20F0020040F01000A06293
:1019E000E06A40F00100E0620120F1E7FDF7E1FF6D
:1019F00000E0FFFFFE0E1FFF00B585B00021009143
:101A000001910291039100680E49884218D10E4855
:101A1000816941F400718161816901F4007104916F
:101A2000816941F0040181618069694600F0040028
:101A300004900120009003200190044800F0A2F9D6
:101A400005B000BD00240140001002400008014024
:101A50002DE9F84300270D460446009700F094FA5C
:101A6000804620688168C90508D5A06A40F020003A
:101A7000A06284F824700120BDE8F8834168C9059C
:101A800003D4C06A10F4700F2AD0022000F0A2FC28
:101A90003B490968B1FBF0F62068036939490B42FC
:101AA0004FEA61014FEAA1121FD1C3684FEA611CDE
:101AB00013EA0C0F19D103690B4225D1C0681042FB
:101AC00022D1142023E0681C0AD02DB100F05CFA6A
:101AD000A0EB0800A84203D920680068800725D53C
:101AE000206800688007EED52DE003690B4202D123
:101AF000C168114206D0026923490A4206D1C06872
:101B0000084203D1542002E0292000E0FC20464393
:101B1000009816E0681C11D02DB100F035FAA0EB4A
:101B20000800A8420AD90098B04207D2A06A40F043
:101B30000400A06284F8247003209DE70098401CF4
:101B40000090B042E6D321686FF012000860A06AEE
:101B500040F40070A06220688068C0F3424007280B
:101B60000CD1207B50B9A06A20F48070A062A06ADA
:101B7000C00403D4A06A40F00100A06200207BE70B
:101B800014000020244992244992240070B5044690
:101B900090F8240001280DD0012084F8240020466C
:101BA000FFF7DAF902004FF0000005D084F82400B6
:101BB000104670BD022070BDA16A40F20123994316
:101BC00041F48071A1621F4D23681F49AB4218D1B7
:101BD0000E6816F4702F14D0A66A46F48016A6621A
:101BE0000E68760505D5A66A26F4005646F480569A
:101BF000A662A66AF6040AD5E66A26F00606E6623A
:101C000006E0A66A26F48016A6625E68E9E7E0624E
:101C100084F824006FF00200186020688368C3F322
:101C20004243072B05D1A84208D1096811F4702F4F
:101C300004D0816841F480118160B9E7816841F482
:101C4000A001F9E7002801400424014010B5044632
:101C500090F82400012807D0012084F824002046B1
:101C6000FFF74EF910B107E0022010BDA16A21F480
:101C7000885141F00101A162002184F8241010BDB7
:101C800010B590F821100022022905D004218163AB
:101C900080F82020012010BD01680B6823F00E039E
:101CA0000B6001680B6823F001030B6090F8403073
:101CB000C46B012101FA03F3636080F8211080F8FE
:101CC0002020104610BD000010B590F8211000240F
:101CD000022903D00421816301243DE001680A68E0
:101CE00022F00E020A6001680A6822F001020A600E
:101CF0001A4A0168914201D1012121E0174A1432A8
:101D0000914201D110211BE0144A2832914201D1A5
:101D1000891515E0114A3C32914201D189140FE036
:101D20000E4A5032914202D14FF4803108E00B4A02
:101D30006432914202D14FF4801101E04FF0807182
:101D4000064A083A5160012180F82110002180F8EC
:101D50002010416B01B18847204610BD08000240A9
:101D600070B5044600F010F90546601C02D0044826
:101D70000078044400F008F9401BA042FAD370BD7B
:101D8000080000202DE9F84FDFF8B8910024A9F1F0
:101D9000040B23460F2709F1040AABF1040EC9E036
:101DA0000125A5402A40AA427DD1674ED1F804C042
:101DB000ACEB0608B44532D014DCBCF1030F3AD0CA
:101DC00009DCBCF1000F2AD0BCF1010F1CD0BCF122
:101DD000020F31D11DE0BCF1110F17D0BCF1120F71
:101DE0002AD119E0B8F5881F19D006DCB8F5803F74
:101DF00015D0B8F5801F1FD111E0B8F5001F0ED027
:101E0000B8F5041F18D10AE0CB6815E0CB681B1D9C
:101E100012E0CB6808330FE0CB680C330CE08B6822
:101E20002BB1012B4FF0080303D0456104E00423DC
:101E300002E0056100E00023FF2A01D8064601E028
:101E400000F104064FEA840501D9A5F12005D6F872
:101E5000008007FA05FC28EA0C0803FA05F548EAB1
:101E60000508C6F800804D68ED0062D5374DAE69B3
:101E700046F00106AE61AD6924F0030605F00105E8
:101E80000095334D06EB050CDCF80850A607360F1D
:101E900007FA06F825EA0805DFF8B880404503D1BF
:101EA0004FF0000817E044E0DFF8AC80404502D175
:101EB0004FF001080FE0DFF8A480404502D14FF059
:101EC000020808E0DFF89880404502D14FF003088F
:101ED00001E04FF0040808FA06F848EA0508CCF8D3
:101EE00008804D68D9F80060ED024D4601D51643D3
:101EF00000E096432E604D68DAF80060AD0255466A
:101F000001D5164300E096432E604D68DBF8006073
:101F1000AD035D4601D5164300E096432E604D6843
:101F2000DEF80060ED03754601D5164300E09643E8
:101F30002E60641C0D682A46E5407FF431AFBDE891
:101F4000F88F00000804014000001110001002404A
:101F50000000014000080140000C01400010014059
:101F6000001401408068084000D001207047C2681A
:101F700021EA02030A4043EA0241016170470AB1C3
:101F8000016170470904FBE7014880687047000061
:101F90000800002070B5040025D094F83D0000250D
:101FA00020B984F83C50204600F04EF9242084F8F3
:101FB0003D002068016821F001010160206801688E
:101FC00041F4004101602068016821F40041016092
:101FD00000F05EFB4D4A6168914201D84C4900E037
:101FE0004C49884201D2012070BD4B492368B0FBA7
:101FF000F1F15E6826F03F060E435E60636893422F
:1020000006D94FF4967359434FF47A73B1FBF3F149
:102010002368491C1E6A26F03F0631431962616835
:10202000914210D84900401EB0FBF1F2521CC2F39D
:102030000B02042A01D2042022E0B0FBF1F0401C84
:10204000C0F30B001CE0A268F2B301EBC10303EB89
:102050000116431EB3FBF6F35B1C43F480431B05E0
:1020600049D092B301EBC10202EB0111401EB0FB5B
:10207000F1F0401CC0F30B0040F4804040F40040FD
:102080002168CA694CF6FF739A431043C861D4E9CA
:10209000071001432068026822F0C002114301606A
:1020A000D4E9030101432068826848F2FF339A4370
:1020B00011438160D4E9050108432168CA6822F010
:1020C000FF021043C86001E00EE016E020680168DE
:1020D00041F0010101602564202084F83D00256362
:1020E00084F83E50002070BD01EB4106431EB3FB57
:1020F000F6F35B1CB3E70120C2E701EB4101401E90
:10210000B0FBF1F0401CC0F30B00B7E7A086010064
:1021100080841E0000093D0040420F002DE9F84F69
:102120001F4690468A460446DDF82890FFF72CFFAC
:10213000054694F83D0020287FD11923012240490B
:102140002046009501F064FA002876D194F83C000E
:10215000012872D0012084F83C0020680168C9077A
:1021600003D1016841F0010101602068016821F498
:1021700000610160212084F83D00102084F83E00B9
:1021800000262664C4F824806785608D20852D484C
:10219000E0622B464A465146204601F0BFF990B90D
:1021A000206841698069009036E02A464946204609
:1021B00001F0D4FA50B1206C042804D120680168E1
:1021C00041F4007101600120BDE8F88F606A216868
:1021D00000780861606A401C6062618D491E6185FB
:1021E000218D491E89B2218522685369DB435B0733
:1021F0000BD451B100781061606A401C6062608D40
:10220000401E6085208D401E20852A464946204676
:1022100001F0D2F90028CED1208D0028C5D154F884
:102220003D0B016841F400710160202004F81E0993
:10223000E67766770020C7E7FFE70220C4E70000E3
:10224000020010000000FFFF10B586B000210091D1
:1022500001910291039100680F4988421AD10F4CF5
:10226000A06940F00800A061A069694600F008007C
:102270000490C02000901220019003200390084891
:10228000FFF780FDE06940F40010E061E06900F4D0
:102290000010049006B010BD005400400010024031
:1022A000000C014002488168027811448160704747
:1022B00008000020074810B5016841F010010160D6
:1022C000032000F075F80F2000F006F800F024F865
:1022D000002010BD0020024070B50D4D04464FF4A3
:1022E0007A712878B1FBF0F00A490968B1FBF0F087
:1022F00000F0A4FB48B9102C07D200222146501E42
:1023000000F036F800206C6070BD012070BD000048
:1023100008000020140000200C4808B5816941F035
:1023200001018161816901F001010091C16941F000
:102330008051C161C06900F080500090044841683C
:1023400021F0E06141F00071416008BD00100240E1
:1023500000000140002809DB00F01F02012191402C
:102360004009800000F1E020C0F800117047000033
:10237000F0B40E4B1B680C46C3F30223C3F10705F0
:10238000042D00D90425191D072901D2002300E0DE
:10239000DB1E012606FA05F1491E214099409E40A8
:1023A000761E16403143F0BC02F008B90CED00E097
:1023B000064900F0070208684FF6FF03184040EA9C
:1023C0000220034A10430860704700000CED00E053
:1023D0000000FA0510B501460020234C012922D047
:1023E000022939D010291DD161682268D20119D57E
:1023F0001E48C1F38342C903805C0AD561681B4A49
:10240000C1F34041921E515C194AB2FBF1F14843BD
:1024100001E0184948436168490203D440000321A0
:10242000B0FBF1F010BD226AC2F30121012903D1F2
:10243000920701D5C80310BD022905D1626A92072F
:1024400002D549F6404010BD0329FCD1216889031B
:10245000F9D54FF2244010BD00F02AF96168C1F3AC
:102460008131491C4900DBE7001002404C51000853
:1024700000127A0000093D002DE9F8430546007876
:10248000354CC00754D0E0690026C00008D4E0698C
:1024900040F08050E061E069012600F0805000903B
:1024A0002E480168C90512D40168804641F4807144
:1024B0000160FFF769FD074605E000BFFFF764FD17
:1024C000C01B642823D8D8F80000C005F6D5206AC0
:1024D00010F4407021D0A98801F4407181421CD0D1
:1024E000206A1F49012220F440700A6000220A601D
:1024F0002062C00711D0FFF747FD074641F2883838
:1025000008E000BFFFF740FDC11B414502D9032091
:10251000BDE8F883206A8007F4D5206A696820F452
:102520004070084320621EB1E06920F08050E061F5
:102530002878800705D56068A96820F440400843E2
:1025400060602878C00605D56068E96820F48000DE
:10255000084360600020DBE700100240007000408C
:10256000400442422DE9F0470F46050061D0434E3A
:10257000306800F00700B84209D2306820F0070048
:1025800038433060306800F00700B84251D1286805
:102590003B4C810712D5400703D5606840F4E060EA
:1025A00060602878000703D5606840F46050606080
:1025B0006068A96820F0F000084360602878C007D0
:1025C00028D06868012810D02168022810D0890717
:1025D00000292EDA616821F0030101436160FFF7F1
:1025E000D3FC804641F288390DE021688903EFE78A
:1025F0008901EDE7FFF7C8FCA0EB0801494502D9C6
:102600000320BDE8F0876068696800F00C00B0EB5B
:10261000810FEFD1306800F00700B8420BD9306865
:1026200020F0070038433060306800F00700B842FF
:1026300001D00120E5E72878400705D56068E96802
:1026400020F4E060084360602878000706D56068E1
:10265000296920F4605040EAC100606000F038F859
:102660006168084AC1F30311515CC840064908601B
:1026700006480068FFF730FE0020C2E70020024055
:10268000001002405C510008140000200C000020E3
:102690000448054900684968044AC1F30221515CB5
:1026A000C840704714000020001002406C51000820
:1026B0000448054900684968044AC1F3C221515CD5
:1026C000C840704714000020001002406C51000800
:1026D0000E4A51680E4801F00C03042B11D0082B50
:1026E0000FD10C48C1F38343C903C05C0AD55168BC
:1026F000084AC1F34041921E515C054A5043B0FB69
:10270000F1F0704704494843704700000010024050
:1027100000127A003A51000800093D002DE9F84FF7
:10272000040070D02078C04DC00749D06868C0F35D
:102730008100012807D06868C0F38100022809D110
:102740006868C00306D52868800339D5606800280A
:10275000E7D035E06068B0F5803F0BD010B1B0F540
:10276000A02F11D0286820F480302860286820F439
:10277000802002E0286840F480302860606890B1D2
:10278000FFF702FC06460AE0286840F48020286033
:10279000F0E700BFFFF7F8FB801B642873D82868B8
:1027A0008003F7D50CE0FFF7EFFB064605E000BF1E
:1027B000FFF7EAFB801B6428F0D828688003F7D471
:1027C00020789A4E80074FF001094FF0000839D564
:1027D000686810F00C0F07D06868C0F38100022809
:1027E00009D16868C00306D42868800714D5206919
:1027F000012808D110E02069B0B1C6F80090FFF7B9
:10280000C3FB074605E00AE1FFF7BEFBC01B022839
:10281000C4D828688007F7D52868616920F0F800D7
:1028200040EAC10028600DE0C6F80080FFF7ACFB6D
:10283000074604E0FFF7A8FBC01B022823D828683E
:102840008007F7D4207800072CD57948A169D9B141
:10285000C0F80090FFF798FB074604E0FFF794FBF1
:10286000C01B02280FD8686A8007F7D571484FF45B
:10287000FA510068B0FBF1F0009000BF0098411ED3
:102880000091FAD20EE080E0C0F80080FFF77CFBF8
:10289000074604E0FFF778FBC01B022875D8686A7A
:1028A0008007F7D42078400760D5E8690027C0008A
:1028B00008D4E86940F08050E861E869012700F039
:1028C000805000905C480168C90513D401688346B4
:1028D00041F480710160FFF757FB824606E000BFBC
:1028E000FFF752FBA0EB0A0064284ED8DBF800008B
:1028F000C005F5D5E06801280AD008B1052813D035
:10290000286A20F001002862286A20F0040002E012
:10291000286A40F001002862E06841F2883B98B1E3
:10292000FFF732FB82460BE0286A40F00400286281
:10293000EEE700BFFFF728FBA0EB0A0159455AD884
:10294000286A8007F6D50CE0FFF71EFB824605E0FB
:10295000FFF71AFBA0EB0A0159454CD8286A8007FB
:10296000F6D41FB1E86920F08050E861E06988B3CF
:102970006968C1F38101022944D00228C6F8608049
:1029800004D0FFF701FB044638E034E0FFF7FCFA1F
:10299000074604E0FFF7F8FAC01B02282BD8286886
:1029A0008001F7D4206AB0F5803F05D16868A1683E
:1029B00020F4003008436860D4E9080108436968DE
:1029C00021F4741108436860C6F86090FFF7DCFAE0
:1029D000044606E025E000BFFFF7D6FA001B0228F8
:1029E00009D828688001F7D51BE000BFFFF7CCFAB3
:1029F000001B022802D90320BDE8F88F2868800157
:102A0000F4D40EE00128F7D06868226A00F480311F
:102A1000914204D1616A00F47010884201D0012013
:102A2000EAE70020E8E70000001002400000424210
:102A300080044242140000200070004010B5401E87
:102A4000B0F1807F01D3012010BD4FF0E024606120
:102A50000F21601701F0B2FD0020A0610720206166
:102A6000002010BD70477047F8B50168044608683B
:102A7000CA684B6910F00F0F4FF0000559D003F0F2
:102A8000010602F49077374365D0C10705D0D10520
:102A900003D5616C41F001016164410705D5D90797
:102AA00003D0616C41F002016164810705D5D9074B
:102AB00003D0616C41F004016164010707D502F0A5
:102AC0002001314303D0616C41F008016164616C05
:102AD00000293AD0800604D5900602D5204601F0A0
:102AE000AEFB20684069616CC0F38010090700D418
:102AF00060B3204601F07CFB20684069400621D588
:102B00002068143050E8001F21F0400140E8001216
:102B1000002AF5D1E06BA8B16D494163E06BFFF786
:102B2000D3F8002811D0E06B416B01B0BDE8F04054
:102B3000084783060FD593060DD52046BDE8F8401B
:102B400001F07DBB2046FFF78EFFF8BD2046FFF762
:102B50008AFF6564F8BD266B2023012E7CD1C60652
:102B60007AD5D60678D508684868009048694FF04D
:102B70000206400640D5E16B086840680004000C7E
:102B8000E8D0A28D8242E5D9E085886920282DD041
:102B900020680C3050E8001F21F4807140E80012DA
:102BA000002AF5D12068143050E8001F21F00101FF
:102BB00040E80012002AF5D12068143050E8001FC8
:102BC00021F0400140E80012002AF5D184F842309B
:102BD000256320680C3050E8001F21F0100140E808
:102BE0000012002AF5D1E06BFFF74AF86663A08D6A
:102BF000E18D401A81B22AE0A08DE18D401A81B2A8
:102C0000E08D0028A6D00029A4D022680C3252E81A
:102C1000000F20F4907042E80007002FF5D12068E3
:102C2000143050E8002F22F0010240E80027002F66
:102C3000F5D184F84230256320680C3050E8002F2D
:102C400022F0100240E80023002BF5D166632046F5
:102C5000FFF708FFF8BDFFE705062BD5150629D5B8
:102C600094F841002128F5D1A068B0F5805F01D12A
:102C70002069B0B1206A411C216221680078486057
:102C8000E08C401E0004000CE084E3D12068C168A1
:102C900021F08001C1602068C16841F04001C1603D
:102CA000D8E7206A0088C0F308004860206A801CCA
:102CB0002062E5E74006CDD55006CBD5CA68204650
:102CC00022F04002CA6084F8413000F0FDF8C1E70C
:102CD000E141000870B5040004D094F841000025DB
:102CE00010B106E0012070BD84F84050204600F08D
:102CF00023F8242084F841002068C16821F40051A1
:102D0000C160204601F0FCFA2068016921F490417D
:102D100001612068416921F02A0141612068C16890
:102D200041F40051C1606564202084F8410084F8BA
:102D300042006563002070BD30B585B0002400946A
:102D40000194029403940068184988422CD11848D1
:102D5000816941F480418161816901F4804104917C
:102D6000816941F0040181618069124D00F0040025
:102D700004904FF400700090022001900320039013
:102D800069462846FEF7FEFF2815CDE9000469468E
:102D900028460294FEF7F6FF002211462520FFF791
:102DA000E7FA2520FFF7D6FA05B030BD003801401C
:102DB000001002400008014090F84230202B01D062
:102DC0000220704721B11AB10023036301F0F4BA65
:102DD000012070470068104988421BD10F49104BF1
:102DE00008468A7800780A2A0CD00D2A0AD01328BF
:102DF00002D21A54401C087008490122891C094853
:102E0000FFF7DABF0028F7D000221A5401204870DB
:102E10000A70F1E770470000003801400000002010
:102E200050000020E80000202DE9F843044690F807
:102E30004100984616460D46202802D00220BDE8E3
:102E4000F88385B17EB100206064212084F84100C0
:102E5000FFF79AF8A6848146E684A0682027B0F59B
:102E6000805F02D003E00120E9E7206910B12E461F
:102E700000250EE000260CE08021204601F0B7FA84
:102E8000A8B9C6B116F8010B21684860E08C401E55
:102E9000E084E08C4B464FF00002CDF80080002823
:102EA000EAD14FF04001204601F0A1FA40B184F888
:102EB00041700320C3E735F8020BC0F30800E3E7D5
:102EC00084F841700020BAE77047FEE710B5044669
:102ED00028A102F07BF830B129A1204602F076F853
:102EE00008B1002010BD27A001F058FB33A001F06D
:102EF00055FB40A001F052FB4BA001F04FFB4FA04F
:102F000001F04CFB5BA001F049FB67A001F046FB20
:102F100073A001F043FB75A001F040FB82A001F01B
:102F20003DFB90A001F03AFB9DA001F037FB9FA074
:102F300001F034FBACA001F031FBBAA001F02EFB94
:102F4000BDA001F02BFBC8A001F028FBD3A001F02D
:102F500025FBE0A001F022FBE2A001F01FFBECA0AA
:102F600001F01CFBF6A001F019FBCCA001F016FB50
:102F7000FEE10000696E737472756374696F6E00B0
:102F8000696E73000D0A3D3D3D3D3D3D3D3D3D3D7E
:102F90003D3D3D3D3D3D3D3D3D3D3D3D3D3D3D3D61
:102FA0003D3D3D3D3D3D3D3D3D3D3D3D3D3D3D3D51
:102FB0003D3D3D3D3D3D0D0A00000000202020200C
:102FC0002020202020202050554D5020434F4E548B
:102FD000524F4C20494E535452554354494F4E2062
:102FE0004D454E55202020202020202020200D0A55
:102FF000000000003D3D3D3D3D3D3D3D3D3D3D3DF5
:103000003D3D3D3D3D3D3D3D3D3D3D3D3D3D3D3DF0
:103010003D3D3D3D3D3D3D3D3D3D3D3D3D3D3D3DE0
:103020003D3D3D3D0D0A0000312E2044697265632F
:1030300074205365743A0D0A000000002020202DF2
:10304000205B56616C75655D2020202020203A2091
:1030500053657420737065656420302D31303025E0
:103060002520696D6D6564696174656C792E0D0A42
:10307000000000002020202D207320202020202070
:103080002020202020203A20456D657267656E6300
:10309000792053746F702028537065656420746FB5
:1030A0002030292E0D0A00002020202D2070202005
:1030B000202020202020202020203A2050617573DD
:1030C000652F526573756D652063757272656E74D8
:1030D0002070726F636573732E0D0A0D0A00000075
:1030E000322E2052616D70203A0D0A002020202DD2
:1030F00020413E42745320202020202020203A20CE
:1031000052616D702066726F6D2041252520746FAD
:103110002042252520696E2053207365636F6E64FD
:10312000732E0D0A000000002020202D20413E4279
:10313000202020202020202020203A2052616D7065
:103140002066726F6D2041252520746F2042252551
:10315000202844656661756C7420313073292E0D0A
:103160000A0000002020202D20412B7453202F2006
:10317000412D745320203A2053706565642075708A
:1031800020746F203130302525206F7220646F77D6
:103190006E20746F203025252E0D0A0D0A000000C8
:1031A000332E2054696D65723A0D0A002020202DBF
:1031B00020417353202020202020202020203A204E
:1031C00052756E2061742041252520666F72205350
:1031D000207365636F6E64732C207468656E207352
:1031E000746F702E0D0A00002020202D20735320B4
:1031F000202020202020202020203A204B656570B0
:103200002063757272656E742073706565642066E4
:103210006F722053207365636F6E64732E0D0A0DF9
:103220000A000000342E2043616C69627261746987
:103230006F6E3A0D0A0000002020202D20636920C7
:10324000202020202020202020203A20456E746558
:10325000722043616C6962726174696F6E204D6F98
:1032600064652E0D0A0000002020202D20636F20B1
:10327000202020202020202020203A20457869741A
:1032800020616E6420736176652043616C696272AF
:103290006174696F6E2E0D0A000000003D3D3D3DDA
:1032A0003D3D3D3D3D3D3D3D3D3D3D3D3D3D3D3D4E
:1032B0003D3D3D3D3D3D3D3D3D3D3D3D3D3D3D3D3E
:1032C0003D3D3D3D3D3D3D3D3D3D3D3D0D0A0D0AF4
:1032D00000000000352E20646972656374696F6EAA
:1032E0003A0D0A002020202D206368616E6765205A
:1032F000202020202020202020203A206368616E9A
:10330000676520646972656374696F6E2E0D0A00CB
:103310002020202D20435720202020202020202046
:1033200020203A206368616E676520646972656376
:1033300074696F6E20746F2043572E0D0A000000D1
:103340002020202D204343572020202020202020F3
:103350002020203A206368616E6765206469726589
:103360006374696F6E20746F204343572E0D0A00FB
:1033700014A001F013F91AA001F010F920A001F037
:103380000DF9AFF2E80001F009F926A001F006F905
:103390002AA001F003F9344801F000F933A001F04C
:1033A000FDF8AFF2081001F0F9F83BA001F0F6F8D3
:1033B00047A001F0F3F8AFF21C1001F0EFF8012084
:1033C00010BD0000362E2053746172742F53746F39
:1033D0007020436F6E74726F6C3A0D0A000000002B
:1033E0002020202D206F6E20202020202020202033
:1033F00020203A2073746172742E0D0A00000000C0
:103400002020202D206F66662020202020202020D4
:103410002020203A2073687574646F776E2E0D0A31
:1034200000000000372E2042757A7A657220436FC3
:103430006E74726F6C3A0D0A000000002020202D7F
:103440002062757A7A65722F6220202020203A202F
:10345000546F67676C652062757A7A6572204F4E8B
:103460002F4F46462E0D0A00B852000820204578FE
:10347000616D706C653A2062743135202D2072695F
:103480006E67206166746572203135207365636FE5
:103490006E64730D0A000000382E2073656C66742C
:1034A000657374284E65656420746F20656E74655D
:1034B000722063616C6962726174696F6E206D6FF6
:1034C0006465206669727374293A0D0A0000000071
:1034D0002020202D2073656C66746573742F7374BF
:1034E0002020203A202E0D0A0000000001684A69C1
:1034F000D24352050FD46FF480624A61002140F834
:10350000301F202242738173026942F0040202617B
:10351000017301207047002070470000F8B5044691
:10352000C06A1E460D461746082807D0012805D058
:1035300010F5803F02D0206B122804D1206801686A
:1035400041F480710160134600224FF001112046C2
:10355000009600F05DF840B120680068C00502D513
:103560004FF4007020640320F8BD2069B0F5804F4F
:103570000ED00620216800EAD51040F0F000086166
:1035800033463A460B49204600F08AF878B902E003
:1035900005F0FE0000E0E8B2216808610549334605
:1035A0003A46891F204600F07BF80028DCD0012035
:1035B000F8BD00000800010070B516460D4604462F
:1035C0001EE02046FFF792FF08B1012070BD681C85
:1035D00016D0FEF7D9FC801BA84200D885B9206818
:1035E0004069C04340070BD5002044F8300F20212C
:1035F0006173A073216941F0200121612073E4E728
:1036000020684069C0434007DBD4002070BD000043
:103610002DE9F047984617460D460446C1F3074684
:10362000DDF820902AE000BFB8F1FF3F26D0FEF77A
:10363000ABFCA0EB0901414502D8B8F1000F1DD148
:103640002068012E16D0806925EA00000004000CD5
:1036500012D00020B84211D1002044F8300F2021B0
:103660006173A073216941F0200121612073012061
:10367000BDE8F0874069E7E70120EBE72068012E0D
:103680000AD0806925EA00000004000C06D0002062
:10369000B842C9D00020EBE74069F3E70120F7E723
:1036A0002DE9F047984616460D4604464FF00009AE
:1036B0004FF0200AC1F3074723E020684069C04368
:1036C000400515D42068016841F40071016021684B
:1036D0006FF480604861C4F8309084F83DA084F8AD
:1036E0003E90216C41F00401216484F83C9021E07B
:1036F000701C06D0FEF748FCA0EB0800B04203D8CF
:1037000016B1012F1FD021E02068012F15D080694C
:1037100025EA00000004000C18D000BF44F8309FD8
:1037200084F80DA084F80E90216941F020012161F8
:1037300084F80C900120BDE8F087406925EA00007C
:103740000004000CEAD12068406901E0206880692B
:1037500025EA00000004000CAFD1ECE770B5164676
:103760000D4604461EE02046FFF7C0FE08B10120CA
:1037700070BD681C16D0FEF707FC801BA84200D85D
:1037800085B920684069C04300060BD5002044F885
:10379000300F20216173A073216941F02001216164
:1037A0002073E4E720684069C0430006DBD40020B2
:1037B00070BD0000014840687047000020000020F4
:1037C000084810B5002141600170FDF72DFFFDF79D
:1037D00053FF00F0EDFBFDF7F7FCBDE810400020C3
:1037E000FDF77EBC2000002070B5FEF7CDFB0C4D30
:1037F0000446287858B9204600F082FA204600F0A6
:10380000C7FC2046FDF724FC2046FDF799FDA8687B
:10381000201A142803D36868FDF762FCAC6070BD01
:103820002000002070B598B004460D21FCF7CDFCB7
:10383000002500B105700A212046FCF7C6FC00B146
:1038400005701F2221466846FCF7B3FC8DF81F5017
:103850004022334908A8FCF788FC00240DF120061B
:1038600056F83410087818B1684601F0AFFBE0B3A1
:10387000641C082CF4DB69462AA000F08FFE2CA102
:10388000684601F0A3FB2B4C80B32BA1684601F0E6
:103890009DFB60B320780128684639D0FFF716FBFE
:1038A000002820D16846FDF795FB00281BD168460B
:1038B000FDF7B2FC002816D1684600F081FB002815
:1038C00011D16846FDF7E0FE00280CD1684600F0F3
:1038D00053F9002807D1684600F0F2FB002802D116
:1038E0006846FDF719FC18B070BD01E007E00BE079
:1038F00006EBC40041686846FCF778FCBBE7012092
:103900002070FDF79BFDEEE7FDF73AFD2570EAE735
:1039100000F034FA0028E6D16846FDF749FDE2E7F9
:10392000C4510008434D443A2025730D0A0000009D
:103930006369000020000020636F000001490870E7
:1039400070470000200000200149486070470000D7
:10395000200000201CB5B0F5805F01D340F6FF7059
:1039600009B1602100E040218DF8041001098DF8B3
:10397000051000018DF8060064200090032301AAC1
:10398000C0210448FEF7CAFB002802D002A000F0C4
:1039900005FE1CBD940000204572726F723A2049EA
:1039A0003243205472616E736D6974204661696C94
:1039B000656420284E41434B290D0A003EB5002482
:1039C00010480094019402940D49846001600473CE
:1039D0000475012505614FF460214460C161FDF764
:1039E0007DFF08B1FDF7C4FECDE9004569460548F5
:1039F0000294FDF7F1FE002801D0FDF7B9FE3EBDAF
:103A000000240140640000202DE9F04786B0002426
:103A10002D480094019402940394816941F01001AF
:103A20008161816901F010010491816941F02001F7
:103A30008161816901F020010491816941F00401F3
:103A40008161816901F004010491816941F00801FB
:103A500081618069DFF8748000F008004FF4005540
:103A60000490002229464046FEF789FADFF860906C
:103A700000221E214846FEF782FADFF858A04FF4D4
:103A80004057002239465046FEF779FA0095022643
:103A900001250396CDE9015469464046FEF772F9C7
:103AA0001E20CDE90005CDE9024669464846FEF7ED
:103AB00069F900970396CDE9015469465046FEF72F
:103AC00061F906B0BDE8F087001002400010014027
:103AD00000080140000C01400D4810B50B49016081
:103AE0000C49416000214FF480428160C0E903121B
:103AF00041618161C1610162FEF74CFA002803D087
:103B0000BDE81040FDF734BE10BD00000054004079
:103B100094000020801A06000C4810B50A49016084
:103B20004FF4E1314160002181600C22C160C0E9A5
:103B300004128161C161FFF7CDF8002803D0BDE810
:103B40001040FDF715BE10BD00380140E800002010
:103B5000FEE7FEE710B57421FCF737FB30B1401CDF
:103B600001F01FFABDE81040FCF768BC004810BD2A
:103B700000002041704700002DE9FF4781463E21AB
:103B8000FCF723FBDFF80C81434C05004FF00107E5
:103B900031D0484601F005FAFCF750FC6060681C23
:103BA00001F0FFF9FCF74AFCA060681CFFF7D2FFA8
:103BB00005464146FCF79AFBFCF719FC2061FEF72D
:103BC000E3F9E06027706068FFF7BEFE2846FCF767
:103BD00022FC07468846A068FCF71DFC05460E46F9
:103BE0006068FCF718FC8DE8E00102460B462BA04C
:103BF00000F0D4FC46E02B214846FCF7E6FA05002D
:103C000005D12D214846FCF7E0FA051E3BD02E7861
:103C100048464D4504D1FFF7CDFDFCF7FCFB01E024
:103C200001F0BFF9FCF70AFC60602B2E2ED00020BB
:103C3000A060681CFFF78EFF05464146FCF756FB67
:103C4000FCF7D5FB2061FEF79FF9E0602770606804
:103C5000FFF77AFE2846FCF7DEFB80468946A0681F
:103C6000FCF7D9FB05460F466068FCF7D4FB8DE8EE
:103C7000A0032B2E0CD012A402460B46214612A004
:103C800000F08CFC012004B0BDE8F0871748CFE7B6
:103C900017A4F1E700007A44700200203E3E205253
:103CA000616D703A20252E3166202D3E20252E3163
:103CB0006620696E20252E3166730D0A0000000013
:103CC000444F574E000000003E3E2052616D702070
:103CD00025733A20252E3166202D3E20252E316673
:103CE00020696E20252E3166730D0A000000C8423F
:103CF00055500000014900200870704770020020F4
:103D00002DE9F041174C2178002929D0E168451AA6
:103D1000214620698F68A84209D83846FFF714FE6B
:103D200000202070BDE8F0410FA000F037BCFCF788
:103D300059FB06462846FCF755FB3146FCF708FBC5
:103D40006468054621463846FCF7CAFA2946FCF75E
:103D5000CDFA2146FCF772FABDE8F041FFF7F4BD59
:103D6000BDE8F081700200203E3E2052616D70205F
:103D7000446F6E652E0D0A007047000010B50446B2
:103D800007A101F023F930B106A1204601F01EF988
:103D900008B1002010BD00F00BF8012010BD00009C
:103DA0007374000073656C66636865636B00000084
:103DB0002DE9F04788B00220FFF7C0FD3DA000F0DC
:103DC000EDFB454A05AFDFF8149107CA87E8070005
:103DD00000240DF108084FF4487A00BF57F824007A
:103DE0004946FCF783FAFCF702FB80B20021FFF79B
:103DF000B1FD5046FDF7B4FFFDF7BCFC48F82400C8
:103E0000FCF709FB05460E4657F82400FCF703FBB8
:103E1000CDE9005602460B4631A000F0BFFB641C02
:103E2000032CDBDB02990498FCF75AFA3249FCF7C1
:103E30008FFADFF8C88006464146FCF757FA049926
:103E4000FCF751FA0446FCF7E6FA05460F46304601
:103E5000FCF7E1FACDE9005702460B4628A000F036
:103E60009DFB3346314A32A133A0009400F000FBA1
:103E70003346424634A137A0009400F0F9FA3346A5
:103E8000002238A139A0009400F0F2FA3346002253
:103E90003AA13CA0009400F0EBFA0020FFF754FD9B
:103EA0000020FFF74BFD3AA000F078FB08B0BDE81A
:103EB000F08700000D0A3D3D3D20535441525420EF
:103EC0004155544F2053454C462D434845434B20C4
:103ED0003D3D3D0D0A00000004520008CDCC2342B8
:103EE000506F696E7420252E306625253A20252EC8
:103EF0003266560D0A0000000000A0420000C842D1
:103F00004C696E65617220466F726D756C613A2006
:103F100056203D20252E3466202A20537065656486
:103F2000202B20252E34660D0A0000000000704270
:103F300032303E363074310052616D702032303E86
:103F4000363074310000000036303E31303074318C
:103F50000000000052616D702036303E3130307408
:103F6000310000003130302D7431000052616D702D
:103F700020446F776E2031730000000031303073C1
:103F80003100000054696D657220313030733100AA
:103F90003D3D3D2053454C462D434845434B204332
:103FA0004F4D504C455445203D3D3D0D0A0D0A00F6
:103FB000012251030148FDF7E2BF0000000C01405F
:103FC00070B506460FA101F001F80F4D4FF40054F3
:103FD00030B10EA1304600F0F9FF40B1002070BDB5
:103FE000002221462846FDF7CAFF09A005E001226C
:103FF00021462846FDF7C3FF0CA000F0CFFA0120B0
:1040000070BD00006F6E0000000C01406F6666001E
:104010003E3E2053797374656D3A204F4E202853ED
:10402000746172746564290D0A0000003E3E2053DD
:10403000797374656D3A204F4646202853746F702B
:10404000706564290D0A0000FEF72CB930B593B0F5
:1040500028216846FCF7A2F814210AA8FCF79EF86C
:104060000024012108040F94109412940491CDE9C6
:104070000010CDE9080411940294022507956846C2
:10408000FEF74CFB08B172B6FEE70F20CDE90A053A
:104090004FF48060CDE90C4000210AA80E94FEF791
:1040A00061FA08B172B6FEE70FA80F951194FEF7FA
:1040B000E3F9002801D072B6FEE713B030BD7047B7
:1040C0007CB505467321FCF780F804000DD0284626
:1040D000FCF785F8012808D9FCF734F80168607806
:1040E000095C202903D02E2801D000207CBDAC42E1
:1040F00006D0284600F055FFFCF7A0F9FFF724FC96
:10410000601C00F04EFFFCF799F90446B0F5000F73
:1041100001DA4FF07E540F492046FCF7E7F8FCF730
:1041200066F90D4DA860FDF72FFF6860012028702B
:104130002046FCF770F904460D46FFF73BFBFCF701
:104140006AF902460B4605A0CDE9004500F026FAC3
:1041500001207CBD00007A44840200203E3E2054B1
:10416000696D6572205365743A2052756E20252E54
:1041700031662C2053746F7020696E20252E3166B5
:10418000730D0A0001490020087070478402002066
:1041900010B50A4C217800290ED06168401AA16838
:1041A000884209D30020FFF7CFFB00202070BDE834
:1041B000104003A000F0F2B910BD000084020020FE
:1041C0003E3E2054696D65723A2054696D652773CF
:1041D0002075702E2053746F707065642E0D0A0068
:1041E00010B5406A0021C185C184FEF73CFC10BDBA
:1041F00001680C3151E8002F22F4907241E800234D
:10420000002BF5D10168143151E8002F22F0010292
:1042100041E80023002BF5D1016B012909D1016888
:104220000C3151E8002F22F0100241E80023002B4E
:10423000F5D1202180F8421000210163704708B5B4
:1042400090F84210222901D0022008BD82684FF464
:1042500080539A4201D1016921B1816A9A421BD0EF
:104260004AB10AE00268816A5268C2F308020A8011
:10427000816A891C08E0026972B10268526802F022
:104280007F020A70816A491C8162C18D491E09043E
:10429000090CC18503D01BE002685268F1E7016890
:1042A000CA6822F02002CA600168CA6822F48072DB
:1042B000CA6001684A6922F001024A61202180F83F
:1042C000421000214163026B012A03D0FEF782FDF8
:1042D000002008BD016301680C3151E8002F22F075
:1042E000100241E80023002BF5D101680A68D206CC
:1042F00002D50A6849680091818DFEF7B3FBE7E7B4
:1043000070B5044600680169E26821F44051114328
:1043100001612169A0680843616908432168CA688E
:1043200041F20C639A430243CA6020684169A26962
:1043300021F44071114341611E492068884202D135
:10434000FEF7B6F901E0FEF7A3F900EBC00101EBBF
:104350000012606864218000B2FBF0F3B3FBF1F35C
:104360006FF018067343B2FBF0F5B2FBF0F605EB05
:104370008305322303EB0515B5FBF1F5B6FBF1F62A
:1043800005F0F00505EB0615B2FBF0F6B2FBF0F018
:10439000B0FBF1F06FF01802504306EB800003EB26
:1043A0000010B0FBF1F0216800F00F002844886095
:1043B00070BD00000038014081628285C285002105
:1043C0004164222180F84210016921B10168CA6864
:1043D00042F48072CA6001684A6942F001024A618F
:1043E0000068C16841F02001C160002070472DE9DC
:1043F000F843984617460D460446089E24E0701C74
:1044000022D0FDF7C1FDA0EB0800B0421AD8CEB112
:104410002068C168490717D5802D15D0402D13D0CD
:104420000168C94309070FD401680025406800905E
:104430002046FFF7DDFE0820606484F8405001202C
:10444000BDE8F8830320FBE72068006835EA000038
:1044500004D00020B842D2D00020F1E70120F9E7D3
:104460000148FEF701BB0000E8000020FEE7000065
:104470002DE9FC470C4601461F46904635A0DDF865
:10448000289000F08BF80020FFF758FA3E212046D4
:10449000FBF79BFE48B92B212046FBF796FE20B97F
:1044A0002D212046FBF791FE18B12046FFF764FB53
:1044B00007E073212046FBF788FE10B12046FFF786
:1044C000FFFDFDF761FD04464FF4966505E000BF72
:1044D000FFF78AF90520FDF743FCFDF755FD001BAA
:1044E000204EA842F4D3FDF745F90546414638462B
:1044F000FBF7FCFE4946FBF7A1FE04463146FBF7FD
:10450000EFFE2946FBF7B6FF12D231462046FBF7F5
:1045100095FE2946FBF7B8FF0AD22846FBF77BFF3A
:1045200002460B4610A000F039F80120BDE8FC87D8
:104530002046FBF770FF04460E462846FBF76BFF4C
:10454000CDE9004602460B460BA000F027F80020FC
:10455000ECE7000054657374696E672025732E2E96
:104560002E200000CDCC4C3E5B4F4B5D2028252EED
:10457000326656290D0A00005B4641494C5D2028F1
:104580005265616C3A252E3266562C204578703A79
:10459000252E326656290D0A000000000FB4054B87
:1045A00010B503A9044A029800F064F910BC5DF844
:1045B00014FB000001500008480000200907090E04
:1045C000002804DB00F1E02080F80014704700F0C0
:1045D0000F0000F1E02080F8141D704710B504466C
:1045E000D1E9000100F002F8206010BDF8B50446E2
:1045F0000D466A4600F010FD00987E3000900028BD
:104600001EDC0022134620462946FCF747FC17D043
:10461000002140F60800FCF759FC064620462946D2
:10462000FBF70CFF044640F6080006EA0001FCF721
:104630004DFC34F0004004BF022000F04BF829E0AC
:104640000098FF2828DB00210846FCF73FFC00F417
:1046500040060022134620462946FCF799F98CBFF4
:1046600000250125022000F035F84FF0FF4446B147
:10467000002D0CBF4FF400004FF48000B04218BF73
:10468000084C04210846FCF721FC002D04BF84F0EF
:104690000040F8BD2046F8BD20462946BDE8F84058
:1046A000FBF7CCBEFFFF7F7F01480068704700002A
:1046B0004C00002002E008C8121F08C1002AFAD1ED
:1046C00070477047002001E001C1121F002AFBD192
:1046D0007047000001490860704700004C0000204E
:1046E0002DE9FF5F82B00021DDE90430020DDDF825
:1046F00040B0034318D044F61050A2F2FF324243B8
:104700001514119801281FD0A5EB0B00401C5FEA7F
:10471000000A4FF000064E4FDFF83891B046504681
:1047200015D5CAF1000413E0119801244AA3012809
:1047300001D16FEA0B010298119AC0E90031C0E97A
:10474000024206B0BDE8F09FCBF10000DFE704466F
:104750000021404A491842EB0450CDE9001012E014
:10476000E00707D032463B4640464946FCF717F87B
:104770008046894632463B4610461946FCF70FF8FC
:1047800006460F466410002CEAD1DDE90401DDE99C
:104790000023BAF1000F06DAFCF701F842464B4657
:1047A000FBF7FDFF05E0FCF76CF842464B46FCF7D3
:1047B00068F804460E460022284BFCF7E9F803D8B7
:1047C0004FF0FF30014607E00022254B20463146DE
:1047D000FBF73EFFFCF7C4F8102409E0002C0ADBCD
:1047E0000A220023FBF770FE039B30321A55641E29
:1047F00050EA0102F2D1641C039AC4F1110314447B
:10480000119A012A03D0012208430DD10AE008437E
:1048100004D000204FF0110B119072E7A3EB0B05B1
:104820006D1E0DE05B4504DD4FF0000205F1010552
:1048300004E003DA4FF00002A5F10105002AECD0F4
:1048400002981199C0E90231C0E9004579E70000FA
:10485000000014400000F03F300000000000F04372
:104860000000E03F30380A2801D2012070470020C4
:10487000704700002DE9FF4F95B09B4689460646DC
:1048800000250FE2252877D100242746F84A012188
:10489000059400E0044316F8013F203B01FA03F0C1
:1048A0001042F7D130782A2811D06FF02F033078DA
:1048B000A0F13002092A16D8059A44F0020402EB4E
:1048C000820203EB42021044761C0590EFE759F890
:1048D000042B0592002A03DA504244F40054059058
:1048E00044F00204761C30782E2816D116F8010FF9
:1048F00044F004042A280DD06FF02F023078A0F184
:104900003003092B09D807EB870302EB4303C718D1
:10491000761CF3E759F8047B761C30786C280FD0AE
:1049200006DC4C2817D068280DD06A2814D104E082
:10493000742810D07A280FD10DE044F400140AE056
:1049400044F4801401E044F440147278824202D1AD
:1049500004F58014761C761C307866280BD013DCA6
:10496000582877D009DC002875D04528F6D046288D
:10497000F4D047281AD19DE118E0632835D0642887
:1049800079D0652812D195E1702873D008DC6728AA
:10499000F1D069286FD06E280DD06F2806D1B5E010
:1049A00073282CD0752875D0782874D05A4617995A
:1049B00090476D1C75E1C4F30250022809D003280A
:1049C0000DD0D9F8001004280DD00D6009F10409AC
:1049D00067E1D9F80010EA17C1E90052F6E7D9F803
:1049E00000100D80F2E70D70F0E719F8041B8DF848
:1049F000001000208DF80100EA46012003E059F87C
:104A000004AB4FF0FF3061074FF0000102D40DE01E
:104A100008F101018846B9420FDA8045F8DB1AF83F
:104A200008100029F4D108E008F10101884681420C
:104A3000FADB1AF808100029F6D105985B46A0EBBE
:104A4000080721463846179A00F094FA284400EBEC
:104A5000080507E04DE029E10DE01AF8010B5A4680
:104A600017999047B8F10108F7D25B4621463846BE
:104A7000179A13E142E00A220092C4F302524FF067
:104A8000000A022A08D059F804CB032A4FEAEC7135
:104A90000AD00DE029E02AE009F1070121F0070220
:104AA000F2E802C1914609E00FFA8CFC4FEAEC7182
:104AB000042A03D14FFA8CFC4FEAEC71002907DA83
:104AC0000A460021DCF1000C61EB02012D2202E01C
:104AD000220504D52B228DF80420012203E0E207F1
:104AE00001D02022F7E7904659E00A2102E0102287
:104AF0000DE010214FF0000A00910BE010224FF062
:104B0000000A44F004040827009203E008224FF052
:104B1000000A0092C4F30252022A05D059F804CBCD
:104B20000021032A08D009E009F1070121F007025A
:104B3000F2E802C1914605E01FFA8CFC042A01D17B
:104B40000CF0FF0C4FF00008220728D5702806D083
:104B5000009B83F0100353EA0A0305D00EE04022C5
:104B60008DF80420012208E05CEA010206D0302220
:104B70008DF804208DF8050002229046009B83F0FA
:104B8000080353EA0A030AD15CEA010201D1620771
:104B900005D530228DF804204FF001087F1E5828DB
:104BA00004D034A003900EA802900DE036A0F9E7DF
:104BB00053466046009AFBF787FC84460398825C64
:104BC0000298401E029002705CEA0100F0D1029847
:104BD00006A9081A00F1200A600702D524F48034DF
:104BE00000E00127574502DDA7EB0A0000E00020A6
:104BF00000EB0A01009005984144401A0590E0033B
:104C000006D45B462146179A059800F0B3F905448F
:104C1000002706E001A85A46C05D179990476D1C11
:104C20007F1C4745F6DBE0030CD55B462146179A0F
:104C3000059800F09FF9054404E030205A46179982
:104C400090476D1C0099481E00900029F5DC08E093
:104C5000029802995A460078491C02911799904788
:104C60006D1CBAF10001AAF1010AF1DC65E1000056
:104C70000928010030313233343536373839616232
:104C800063646566000000003031323334353637F6
:104C900038394142434445460000000000F058F9CD
:104CA0000544761C307800287FF4ECAD19B0284616
:104CB000BDE8F08F620700D4062709F1070222F051
:104CC000070CFCE80223E14603F000485FEA080C09
:104CD00002D00FF2702C0DE05FEA045C02D50FF2F7
:104CE000682C07E05FEAC47C02D00FF2602C01E080
:104CF000AFF2700C4FF0FF3823F00043CDF850C0F6
:104D000065280CD006DC452809D046281DD0472848
:104D10003DD13DE0662818D067287ED138E00021DB
:104D2000112F01DB112000E0781CCDE9000106A95C
:104D30000EA8FFF7D5FCDDE90F010E9A03910021C3
:104D4000009207F1010A04914DE04FF000400097F6
:104D5000CDE9011006A90EA8FFF7C2FCDDE90F029C
:104D600003920E9B11990022DDF80CA0009304928F
:104D700011B9791C00EB010AB7EB0A0004D4C0F1A9
:104D8000FF3007F1010A0490AAEB0700019044E00C
:104D9000012F00DA01270021112F01DD112000E091
:104DA0003846CDE9000106A90EA8FFF799FCDDE918
:104DB0000F010E9A0391002104910092BA46210737
:104DC0000CD40399514500DA8A46BAF1010F05DD8A
:104DD000009AAAF10101515C302908D0B84202DAE8
:104DE00010F1040F06DA0121CDE9011015E0AAF156
:104DF0000101E9E7002805DC049901440491AAEBCC
:104E0000000102E0411C514500DD8A460499401A28
:104E1000401C01904FF000400290200704D40198FC
:104E2000504501DBCDF8048000208DF84F0002983A
:104E30000DF14F07B0F1004F25D02B200E900298B6
:104E40004FF0020800280CDA404202902D200E900C
:104E500007E00A210298FBF721FB3031029007F8A6
:104E6000011DB8F10001A8F10108F2DC0298002848
:104E7000EFD1791E0E980870307800F0200040F0D5
:104E8000450007F8020D12A8C01B00F1070814988E
:104E9000007800B1012000EB0A01019801EBE071FC
:104EA00005984144401A401E0590E00306D45B4635
:104EB0002146179A059800F05DF80544149800788B
:104EC00018B15A46179990476D1CE00324D55B46EC
:104ED0002146179A059800F04DF805441CE0049807
:104EE000002807DBDDE90301884203DD0098405C10
:104EF000179901E0179930205A469047049805F118
:104F00000105401C04900198401E019004D12E2000
:104F10005A46179990476D1CBAF10001AAF1010A8F
:104F2000DDDC05E017F8010B5A46179990476D1C18
:104F3000B8F10001A8F10108F4DC5B462146179A9C
:104F40000598ABE62D0000002B00000020000000BB
:104F50002DE9F041044600251E461746880404D476
:104F600005E039462020B0476D1C641EF9D528465F
:104F7000BDE8F0812DE9F041044600251E4690462B
:104F8000C80301D5302700E02027880404D505E0B8
:104F900041463846B0476D1C641EF9D52846BDE829
:104FA000F08130B583B00446FFF77EFB0546002054
:104FB000CDE90000024621466846FBF7D2FA2846B2
:104FC000FFF788FBDDE9000103B030BD70B50D4689
:104FD000044601E0641C6D1C207838B1FBF7BFF873
:104FE00006462878FBF7BBF88642F3D02078FBF71B
:104FF000B6F804462878FBF7B2F8201A70BD000016
:1050000013B56423012269460248FDF70DFF00989D
:105010001CBD0000E800002010B5144600222260EC
:10502000114A21F000439342A8BF10BD53EA000289
:1050300008BF10BDB3F5801FA8BF226807DA36226B
:10504000FBF746FF6FF0350221F000432260DFF8E6
:105050001CC06FF31E510CEB23531A4441F0FF5157
:1050600041F00051226010BD0000F07F02FCFFFF04
:10507000FDF720F9FEF7EAFFFEF7C6FCFEF72CFD70
:10508000FEF74AFDFEF79AFC0122164D5403214615
:105090002846FCF774FF14A0FFF780FAFEF790FB98
:1050A00001221D491D48FDF787FEA0461A4C4FF40A
:1050B000FA770026B4F10204FCF766FF6168401A33
:1050C000B84206D341462846FCF751FFFCF75CFF87
:1050D0006060607818B166701148FEF7A3FBFEF7B8
:1050E00083FBE9E70010014053797374656D205329
:1050F0007461727465642E20506C656173652065FF
:105100006E7465722073706565642028302D3130AF
:1051100030293A0D0A00000002000020E8000020BB
:105120005000002008B50A4600210091014668465B
:10513000FBF74AFA009808BD0102020304050607BE
:1051400008090A0B0C0D0E0F1010010202030405D2
:10515000060708090A0B0C0D0E0F101000000000C6
:105160000000000001020304060708090000000017
:105170000102030400000000CDCC1C4133339F41E9
:105180003333EF4166662042333349429A99714284
:105190009A998C42CDCCA0420000B542000000009C
:1051A000000020410000A0410000F041000020422A
:1051B000000048420000704200008C420000A04203
:1051C0000000B442AC520008A8520008B0520008D7
:1051D000A4520008A052000898520008B4520008D7
:1051E000B4520008B4520008B4520008B452000887
:1051F000B4520008B4520008B4520008B452000877
:10520000B45200080000A041000070420000C842F3
:1052100000404040404040404040414141414140C9
:10522000404040404040404040404040404040407E
:10523000400502020202020202020202020202020D
:105240000220202020202020202020020202020212
:10525000020290909090909010101010101010106A
:105260001010101010101010101010100202020276
:1052700002028888888888880808080808080808BA
:1052800008080808080808080808080802020202B6
:105290004000000011520008627431350000000027
:1052A000650000006F6666006F6E00007100000010
:1052B00077000000000000002020202D2062745B99
:1052C00074696D655D20202020203A2052696E6748
:1052D0002062757A7A6572206166746572205B74EB
:1052E000696D655D207365636F6E647320666F72B0
:1052F0002031207365636F6E642E0D0A000000007C
:10530000205300080000002050000000B4460008B0
:10531000705300085000002040060000C4460008FA
:10532000000000000000000001000000100000006C
:105330000000000000127A000000000000000000E1
:10534000000000000000000000000000000000005D
:10535000000000000000000000000000000000004D
:10536000000000000000000000000000000000003D
:04000005080000ED02
:00000001FF
