:020000040800F2
:100000000005002001010008B3280008931F000824
:10001000B1280008610E0008C52B00080000000090
:10002000000000000000000000000000D3280008CD
:10003000110F000800000000D1280008D528000892
:100040001B0100081B0100081B0100081B01000820
:100050001B0100081B0100081B0100081B01000810
:100060001B0100081B0100081B0100081B01000800
:100070001B0100081B0100081B0100081B010008F0
:100080001B0100081B0100081B0100081B010008E0
:100090001B0100081B0100081B0100081B010008D0
:1000A0001B0100081B0100081B0100081B010008C0
:1000B0001B0100081B0100081B0100081B010008B0
:1000C0001B0100081B0100081B0100081B010008A0
:1000D0001B010008B92B00081B0100081B010008C8
:1000E0001B0100081B0100081B010008DFF80CD0F1
:1000F00000F010FC004800474535000800050020CE
:100100000648804706480047FEE7FEE7FEE7FEE7B1
:10011000FEE7FEE7FEE7FEE7FEE7FEE73729000819
:10012000ED000008202A04DB203A21FA02F0002129
:10013000704721FA02F3D040C2F1200291400843F7
:1001400019467047D2B201E000F8012B491EFBD2DC
:1001500070470022F6E710B513460A4604461946D2
:10016000FFF7F0FF204610BDCAB2401E10F8011F75
:100170008A4202D00029F9D100207047421C10F8B1
:10018000011B0029FBD1801A70472DE9F0410E4672
:100190000546002400E0641C285D00F076F907465F
:1001A000305D00F072F9381A02D1295D0029F2D1D0
:1001B000BDE8F081F0B480EA0102D40F4200B2EB56
:1001C000410F02D20246084611464A0042D0C30DF2
:1001D000DDB2C1F3C752AD1A202D35DAC1F31601D5
:1001E00041F4000204B15242C5F1200602FA06F1C0
:1001F0002A411044B3EBD05F23D0C4B1012DA0EB52
:10020000C35009DCF0BC4FF0004202EAC352DBB23B
:1002100000F5000000F097B9400000F1807000EB9D
:10022000C350A0F1807040EAD170490009E049084C
:1002300041EAC071A0EBC35000F50000400800EB9C
:10024000C350F0BC00F076B96142012202EB4101DB
:10025000001BF6E7F0BC704781F00041AAE780F090
:100260000040A7E780EA010210B502F00043400019
:1002700022D04A001FD0010E01EB1261C0F35600DC
:10028000C2F3560240F4000042F40002A0FB022038
:1002900000047F39140400D0401C50EA124001D4FD
:1002A0004000491EC2B20C0604EBD010401C4008AE
:1002B000802A02D003E0002010BD20F001000029B8
:1002C00000DA0020184310BD30B480EA010202F0C9
:1002D000004530F0004221F0004013D090B1C30D32
:1002E000D40DC2F31601C0F31600E41A41F4000164
:1002F00040F400027D34914201D3641C00E04900C7
:10030000002C02DA30BC002070474FF400000023BC
:10031000914201D3891A034340084FEA4101F7D1C2
:1003200051B1914202D14FF0004105E002D24FF0AD
:10033000010101E06FF0010103EBC450284430BC1F
:1003400000F0F8B896230022114600F0FCB820F027
:100350000040C10DC0F3160040F400007F2901DA0F
:1003600000207047962903DCC1F19601C840704710
:1003700096398840704700F0004230F000400AD0C3
:10038000C10D01F56071C0F3160042EA0151C208C7
:1003900040071143704700200146704701F00043B9
:1003A00030B421F0004150EA010206D00A0DA2F556
:1003B0006072C1F31301002A02DC30BC00207047D8
:1003C000440F44EAC104C100E01830BC00EBC25045
:1003D00000F0B0B8002801DBC0F10040002901DBCB
:1003E000C1F1004181427047002801DBC0F10040AB
:1003F000002901DBC1F100418842704730B50B464E
:10040000014600202022012409E021FA02F59D4244
:1004100005D303FA02F5491B04FA02F52844151E18
:10042000A2F10102F1DC30BD2DE9F05F05460020AC
:1004300092469B4688460646814640241BE0284655
:10044000414647462246FFF76DFE53465A46C01ABC
:10045000914110D311461846224600F06DFA2D1A2C
:1004600067EB01084F4622460120002100F064FAA4
:1004700017EB00094E41201EA4F10104DFDC4846C1
:1004800031462A464346BDE8F09FA0F141011929B3
:1004900000D82030704700000FB4002300B589B0A9
:1004A0000CA900910B996FF00042CB601E4B069394
:1004B0001E4B07930423CDE901321D4A08920246E0
:1004C0006B46002000F0F2FA09B05DF814FB70B53D
:1004D00086B006464FF0FF300091CDE901010020C3
:1004E00015460C4604903246694604A8FFF7D4FF2F
:1004F00002460498211825B108B1084600E02046BC
:100500002860049800280DD0002A02DD0098884257
:1005100008D0081B0094CDE901043246694604A8BE
:10052000FFF7BAFF06B070BDE50C0008030D000828
:100530007B0900080029A8BF7047401C490008BF7C
:1005400020F00100704710B4B0FA80FC00FA0CF003
:1005500050EA010404BF10BC704749B1CCF120043B
:1005600021FA04F411FA0CF118BF012121430843C8
:10057000A3EB0C01CB1D4FEA00614FEA102042BFF4
:10058000002010BC704700EBC35010440029A4BFEA
:1005900010BC7047401C490008BF20F0010010BC8F
:1005A00070472DE9FE4F804681EA0300C00F0C46DC
:1005B000009021F0004123F00045B8EB0200A94172
:1005C00005D24046214690461C460B46024623F083
:1005D0000040104347D0270DC7F30A00C3F30A5168
:1005E0000290401A019040286BDAC3F3130040F4E4
:1005F000801B0098924620B10023D2EB030A63EBE4
:100600000B0B01985946C0F14002504600F094F996
:1006100006460D4650465946019A00F09CF910EBEB
:1006200008006141002487EA115284EAE7731A4303
:1006300040D0009A62B3019A012A4FEA075215DCB2
:10064000001B61EB02014FF0004202EA0752CDE9C4
:100650000042001C41F5801132462B4600F071FB30
:1006600003B0BDE8F08F40462146F9E7001B61EB7F
:100670000201001C41F5801300185B412018A2F50F
:10068000001747EB030140EAD570B6196D4111E040
:100690006D084FEA360645EAC0754FEA0752001B5F
:1006A00061EB0201001C41F5801149084FEA30005E
:1006B0000019514132462B4603B0BDE8F04F00F01F
:1006C00031BB0098012240000023D0EB020263EB13
:1006D000E073009821464FEAE074B8EB000061EB4C
:1006E0000401E9E783F000435BE781F0004158E74C
:1006F0002DE9FE4F81EA030404F0004421F000419B
:1007000000944FF0000B23F0004350EA01045ED048
:1007100052EA03045BD0C3F30A54C1F30A552C44D4
:10072000A4F2F3340194A0FB0254C1F3130141F489
:100730008011C3F3130343F4801301FB024400FB55
:10074000034E840A970A44EA815447EA8357A4FB7C
:10075000076802958D0A05FB07854FEA932C04FB79
:100760000C542705029D4FEA065847EA1637B5EBA9
:1007700008056EEB070C870E920E47EA811742EAD6
:100780008312A7FB0201B6EB0B0164EB00042B0DF7
:1007900043EA0C335E1844EB1C50DA465146E7FB43
:1007A0000201C5F313044FEA0B3343EA14534FEA33
:1007B0000432019C43EA0603A4F10C040294009C59
:1007C000CDE900B400F0BDFA03B0BDE8F08F002021
:1007D0000146F9E72DE9F04D81EA030404F0004BEE
:1007E00021F0004514464FF0000A23F0004150EA82
:1007F000050220D054EA01021DD0C5F30A57024673
:10080000C5F31303C1F31300C1F30A5640F4801576
:1008100043F48013A7EB0608101BD64608F2FD38F8
:1008200073EB050002D308F1010801E092185B4167
:10083000B8F1000F03DA00200146BDE8F08D00207A
:100840004FF48011064684460EE0171B73EB050734
:1008500005D3121B63EB050306434CEA010C490860
:100860004FEA300092185B4150EA0107EDD152EA9D
:10087000030012D082EA040083EA0501084305D090
:10088000101BAB4106D20122002306E000224FF0EC
:10089000004302E06FF0010253101AEB06004CEB2C
:1008A000085110EB0A0041EB0B01BDE8F04D00F0E0
:1008B00039BAC1F30A52C1F3130140F2FF3341F4D4
:1008C00080119A4202DA00200146704740F2334319
:1008D0009A42A2F2334202DC5242FFF723BC00F0FC
:1008E0002BB8000030B5041E71F1000404DB4FF09A
:1008F0000044404264EB0101141E73F1000405DB67
:100900001C464FF00043524263EB0403994208BF78
:10091000904230BD064C074D06E0E06840F0010310
:1009200094E8070098471034AC42F6D3FFF7E2FB97
:100930007C3600089C360008202A04DB203A00FAA6
:1009400002F1002070479140C2F1200320FA03F326
:10095000194390407047202A06DBCB17203A41FA12
:1009600002F043EAE07306E041FA02F3D040C2F13C
:1009700020029140084319467047C0B24FF4F0512D
:1009800000F02EBA2DE9FF4F087883B09946FF2872
:1009900005D0491C2D2804D00024002008E00020A8
:1009A0000BE00124F9E700EB800003EB4000491C59
:1009B0000B78FF2BF7D104B1404200230293147847
:1009C00019461D462D2C01D02B2C04D1521C2D2C48
:1009D00013D000240294AA461478FF2C0FD00A25C5
:1009E000A3FB057801FB05814FF0000C03FB0C1104
:1009F000521CE3194AEB0101EEE70124EAE78144C6
:100A000053EA010002D019F5C87F06DA03980021E5
:100A1000C0E9001107B0BDE8F08F0025AE4E2F46AB
:100A2000DFF8B882184600F0EFF9CDE90001B9F11E
:100A3000000002DAC9F1000400E004460023A74ADE
:100A40001AEB030B42EB045A12E0E00707D02A46E8
:100A5000334638464146FFF74BFE074688462A464E
:100A6000334610461946FFF743FE05460E4664100E
:100A7000002CEAD1DDE90001B9F1000F5A465346D6
:100A800006DAFFF7A7FE3A464346FFF7A3FE05E066
:100A9000FFF72EFE3A464346FFF72AFE029A0AB1B6
:100AA00081F00041039AC2E90001B3E72DE9FF4F4D
:100AB0001F468DB0D7E901464FF0FF382E2045463E
:100AC0004FF000090B90B9696D1C0E988847396A80
:100AD000824688470028F6D1BAF1FF3F0AD024F4B5
:100AE000D064002E11DDBAF12B0F08D0BAF12D0F12
:100AF0000BD102E0404611B08DE744F48064B9693F
:100B00006D1C0E9888478246761E6946600501D5A1
:100B10002D2000E02B208DF8000001F1010B0DF1DC
:100B2000200809E0B9696D1C0E98884782460F9825
:100B300044F40074761E0560002E02DDBAF1300F19
:100B4000F0D00B998A453ED144F0800406E00F991D
:100B5000681CA9F1010944F400740860B9696D1CAE
:100B6000761E0E98884782463028F0D02BE00B99ED
:100B70008A4505D1200603D444F08004761E18E08F
:100B8000504602F01FF908B30DF11301761E44F42C
:100B900000748B4508D2AAF130000BF8010B200637
:100BA00007D5A9F1010003E0200602D409F10100F4
:100BB0008146A00502D50F99681C0860B9696D1CB3
:100BC0000E9888478246002ED1DC53E0002E51DD7E
:100BD000BAF1650F02D0BAF1450F4BD1A00549D546
:100BE000B9696D1C24F44074761E0E9888478246BD
:100BF000002E0CDD2B2804D0BAF12D0F07D144F4C0
:100C00008074B9696D1C0E9888478246761EE0058F
:100C100001D52D2100E02B2108F8011BCDF82C80F7
:100C200021E00DF12901761E44F4007488450CD2B0
:100C3000AAF1300010F0FF0088F8000002D10B99F3
:100C4000884509D908F1010806E0E00501D52448E6
:100C500001E042F20F708146B9696D1C0E98884719
:100C600082460F980560002E04DD504602F0AAF877
:100C70000028D6D1F9690E988847FF208BF800002C
:100C800088F800000020069007904B466A4608A9A5
:100C900006A8FFF777FEA00502D46FF001002AE74F
:100CA00014F0240F0AD0E00714D1DDE906123868E9
:100CB000031D3B600068C0E900120BE0DDE906019E
:100CC000FFF76CFB0146E00704D13868021D3A606B
:100CD0000068016028460EE7000014400000F03F65
:100CE000F1D8FFFF426842B1016811F8013B23B11E
:100CF000521EC0E90012184670470121C160881ECB
:100D0000704742685AB1C368016843B983688B422F
:100D100005D0491E521CC0E90012002070474FF058
:100D2000FF30704710B5141E73F1000408DA401C40
:100D300041F1000192185B411A4301D120F00100FA
:100D400010BD2DE9F04D92469B4611B1B1FA81F2EA
:100D500002E0B0FA80F220329046FFF7EDFD044643
:100D60000F4640EA0A0041EA0B0153465A4608433F
:100D700013D0114653EA010019D0C8F14002504681
:100D8000FFF7D0F905460E46504659464246FFF752
:100D9000D3FD084305D0012004E020463946BDE8D4
:100DA000F08D0020054346EAE0762C4337430A984D
:100DB0006305E40AA0EB08000022FD0A44EA475458
:100DC0000A3002D500200146E9E701051019694102
:100DD000DDE9084500196941BDE8F04DA2E70000D2
:100DE0007F2801D9002208E0064A02EB5002C00722
:100DF000127800D1120902F00F0201209040084041
:100E0000704700003C3600080EB540F233420292B3
:100E10000022CDE900221346FFF793FF03B000BD87
:100E200010B50D4910F1FF4F01D3002002E08842B8
:100E300000DD084600F016F80849FFF713FAFFF73F
:100E400086FA80B2B0F5805F01D340F6FF70BDE84E
:100E50001040002101F068BC0000C842CDCC234204
:100E6000FEE700002DE9F0410646B0F5000F02DA7A
:100E70000020BDE8F08122498E4208DB214C224D42
:100E8000FFF7EAF92946FFF7EDF921462FE01F4D5C
:100E9000002400BF55F824103046FFF7A5FA2AD8E1
:100EA00005EB840041683046FFF794FA23D21749D6
:100EB00005EB8400283155F8247051F8245001EBDB
:100EC000840140684C683946FFF7C6F980463946C8
:100ED0003046FFF7C1F94146FFF7F6F906462946C5
:100EE0002046FFF7B9F93146FFF7BCF92946BDE8BE
:100EF000F041FFF75FB9641C092CCBDB3046B8E743
:100F00009A99B9420000B4426027763FEC35000858
:100F1000704772B6FEE710B590F821100022022942
:100F200005D00421816380F82020012010BD0168D4
:100F30000B6823F00E030B6001680B6823F00103BC
:100F40000B6090F84030C46B012101FA03F3636039
:100F500080F8211080F82020104610BD10B590F8C0
:100F600021100024022903D00421816301243DE0E3
:100F700001680A6822F00E020A6001680A6822F01D
:100F800001020A601A4A0168914201D1012121E05F
:100F9000174A1432914201D110211BE0144A283221
:100FA000914201D1891515E0114A3C32914201D19B
:100FB00089140FE00E4A5032914202D14FF4803131
:100FC00008E00B4A6432914202D14FF4801101E0F3
:100FD0004FF08071064A083A5160012180F82110D3
:100FE000002180F82010416B01B18847204610BDD8
:100FF000080002402DE9F84FDFF8B8910024A9F16C
:10100000040B23460F2709F1040AABF1040EC9E0D3
:101010000125A5402A40AA427DD1674ED1F804C0DF
:10102000ACEB0608B44532D014DCBCF1030F3AD067
:1010300009DCBCF1000F2AD0BCF1010F1CD0BCF1BF
:10104000020F31D11DE0BCF1110F17D0BCF1120F0E
:101050002AD119E0B8F5881F19D006DCB8F5803F11
:1010600015D0B8F5801F1FD111E0B8F5001F0ED0C4
:10107000B8F5041F18D10AE0CB6815E0CB681B1D3A
:1010800012E0CB6808330FE0CB680C330CE08B68C0
:101090002BB1012B4FF0080303D0456104E004237A
:1010A00002E0056100E00023FF2A01D8064601E0C6
:1010B00000F104064FEA840501D9A5F12005D6F810
:1010C000008007FA05FC28EA0C0803FA05F548EA4F
:1010D0000508C6F800804D68ED0062D5374DAE6951
:1010E00046F00106AE61AD6924F0030605F0010586
:1010F0000095334D06EB050CDCF80850A607360FBB
:1011000007FA06F825EA0805DFF8B880404503D15C
:101110004FF0000817E044E0DFF8AC80404502D112
:101120004FF001080FE0DFF8A480404502D14FF0F6
:10113000020808E0DFF89880404502D14FF003082C
:1011400001E04FF0040808FA06F848EA0508CCF870
:1011500008804D68D9F80060ED024D4601D5164370
:1011600000E096432E604D68DAF80060AD02554607
:1011700001D5164300E096432E604D68DBF8006011
:10118000AD035D4601D5164300E096432E604D68E1
:10119000DEF80060ED03754601D5164300E0964386
:1011A0002E60641C0D682A46E5407FF431AFBDE82F
:1011B000F88F0000080401400000111000100240E8
:1011C0000000014000080140000C014000100140F7
:1011D000001401400AB1016170470904FBE70000F7
:1011E00001488068704700000400002070B50400CA
:1011F00025D094F83D00002520B984F83C502046C5
:1012000000F04EF9242084F83D002068016821F0A8
:10121000010101602068016841F40041016020681B
:10122000016821F40041016000F096FA4D4A6168BE
:10123000914201D84C4900E04C49884201D201203A
:1012400070BD4B492368B0FBF1F15E6826F03F06A4
:101250000E435E606368934206D94FF49673594318
:101260004FF47A73B1FBF3F12368491C1E6A26F030
:101270003F06314319626168914210D84900401E0F
:10128000B0FBF1F2521CC2F30B02042A01D204207B
:1012900022E0B0FBF1F0401CC0F30B001CE0A268A0
:1012A000F2B301EBC10303EB0116431EB3FBF6F3EC
:1012B0005B1C43F480431B0549D092B301EBC10290
:1012C00002EB0111401EB0FBF1F0401CC0F30B001B
:1012D00040F4804040F400402168CA694CF6FF7336
:1012E0009A431043C861D4E907100143206802689B
:1012F00022F0C00211430160D4E9030101432068D8
:10130000826848F2FF339A4311438160D4E90501B2
:1013100008432168CA6822F0FF021043C86001E058
:101320000EE016E02068016841F0010101602564CB
:10133000202084F83D00256384F83E50002070BDD5
:1013400001EB4106431EB3FBF6F35B1CB3E7012040
:10135000C2E701EB4101401EB0FBF1F0401CC0F3BD
:101360000B00B7E7A086010080841E0000093D0045
:1013700040420F002DE9F84F1F4690468A4604462A
:10138000DDF82890FFF72CFF054694F83D00202853
:101390007FD11923012240492046009500F08CFEA0
:1013A000002876D194F83C00012872D0012084F8FE
:1013B0003C0020680168C90703D1016841F00101C0
:1013C00001602068016821F400610160212084F837
:1013D0003D00102084F83E0000262664C4F82480D6
:1013E0006785608D20852D48E0622B464A46514630
:1013F000204600F0E7FD90B92068416980690090BF
:1014000036E02A464946204600F0FCFE50B1206CEA
:10141000042804D12068016841F4007101600120B2
:10142000BDE8F88F606A216800780861606A401C36
:101430006062618D491E6185218D491E89B22185B9
:1014400022685369DB435B070BD451B1007810610C
:10145000606A401C6062608D401E6085208D401E69
:1014600020852A464946204600F0FAFD0028CED1C4
:10147000208D0028C5D154F83D0B016841F400715E
:101480000160202004F81E09E67766770020C7E790
:10149000FFE70220C4E70000020010000000FFFF89
:1014A00010B586B00021009101910291039100686E
:1014B0000F4988421AD10F4CA06940F00800A06182
:1014C000A069694600F008000490C0200090122036
:1014D0000190032003900848FFF78CFDE06940F479
:1014E0000010E061E06900F40010049006B010BD47
:1014F0000054004000100240000C01400248816886
:10150000027811448160704704000020074810B53C
:10151000016841F010010160032000F075F80F2010
:1015200000F006F800F024F8002010BD0020024072
:1015300070B50D4D04464FF47A712878B1FBF0F088
:101540000A490968B1FBF0F000F0DCFA48B9102C48
:1015500007D200222146501E00F036F800206C60B1
:1015600070BD012070BD00000400002010000020AC
:101570000C4808B5816941F001018161816901F080
:1015800001010091C16941F08051C161C06900F061
:10159000805000900448416821F0E06141F0007102
:1015A000416008BD0010024000000140002809DB36
:1015B00000F01F02012191404009800000F1E0206D
:1015C000C0F8001170470000F0B40E4B1B680C46C9
:1015D000C3F30223C3F10705042D00D90425191D07
:1015E000072901D2002300E0DB1E012606FA05F1DF
:1015F000491E214099409E40761E16403143F0BC62
:1016000001F0F2BA0CED00E0064900F007020868AC
:101610004FF6FF03184040EA0220034A10430860D7
:10162000704700000CED00E00000FA052DE9F047DE
:101630000F46050061D0434E306800F00700B84205
:1016400009D2306820F0070038433060306800F07D
:101650000700B84251D128683B4C810712D540079A
:1016600003D5606840F4E06060602878000703D527
:10167000606840F4605060606068A96820F0F00025
:10168000084360602878C00728D06868012810D017
:101690002168022810D0890700292EDA616821F01C
:1016A000030101436160FFF79BFD804641F28839E9
:1016B0000DE021688903EFE78901EDE7FFF790FD71
:1016C000A0EB0801494502D90320BDE8F087606816
:1016D000696800F00C00B0EB810FEFD1306800F0CA
:1016E0000700B8420BD9306820F00700384330605B
:1016F000306800F00700B84201D00120E5E7287803
:10170000400705D56068E96820F4E0600843606040
:101710002878000706D56068296920F4605040EAFF
:10172000C100606000F038F86168084AC1F3031135
:10173000515CC8400649086006480068FFF7F8FE9B
:101740000020C2E70020024000100240D23500080D
:10175000100000200800002004480549006849687E
:10176000044AC1F30221515CC840704710000020B8
:1017700000100240E2350008044805490068496845
:10178000044AC1F3C221515CC840704710000020D8
:1017900000100240E23500080E4A51680E4801F080
:1017A0000C03042B11D0082B0FD10C48C1F3834339
:1017B000C903C05C0AD55168084AC1F34041921E72
:1017C000515C054A5043B0FBF1F07047044948436F
:1017D000704700000010024000127A00C235000875
:1017E00000093D002DE9F84F040070D02078C04D6D
:1017F000C00749D06868C0F38100012807D0686835
:10180000C0F38100022809D16868C00306D52868A2
:10181000800339D560680028E7D035E06068B0F50E
:10182000803F0BD010B1B0F5A02F11D0286820F464
:1018300080302860286820F4802002E0286840F486
:1018400080302860606890B1FFF7CAFC06460AE065
:10185000286840F480202860F0E700BFFFF7C0FC54
:10186000801B642873D828688003F7D50CE0FFF745
:10187000B7FC064605E000BFFFF7B2FC801B6428FA
:10188000F0D828688003F7D420789A4E80074FF06C
:1018900001094FF0000839D5686810F00C0F07D027
:1018A0006868C0F38100022809D16868C00306D4C3
:1018B0002868800714D52069012808D110E0206924
:1018C000B0B1C6F80090FFF78BFC074605E00AE1CF
:1018D000FFF786FCC01B0228C4D828688007F7D50C
:1018E0002868616920F0F80040EAC10028600DE036
:1018F000C6F80080FFF774FC074604E0FFF770FCB1
:10190000C01B022823D828688007F7D42078000756
:101910002CD57948A169D9B1C0F80090FFF760FCD7
:10192000074604E0FFF75CFCC01B02280FD8686A7A
:101930008007F7D571484FF4FA510068B0FBF1F019
:10194000009000BF0098411E0091FAD20EE080E0A6
:10195000C0F80080FFF744FC074604E0FFF740FCB6
:10196000C01B022875D8686A8007F7D42078400722
:1019700060D5E8690027C00008D4E86940F08050CD
:10198000E861E869012700F0805000905C48016838
:10199000C90513D40168834641F480710160FFF7E3
:1019A0001FFC824606E000BFFFF71AFCA0EB0A000E
:1019B00064284ED8DBF80000C005F5D5E0680128A2
:1019C0000AD008B1052813D0286A20F00100286247
:1019D000286A20F0040002E0286A40F00100286232
:1019E000E06841F2883B98B1FFF7FAFB82460BE0D2
:1019F000286A40F004002862EEE700BFFFF7F0FB22
:101A0000A0EB0A0159455AD8286A8007F6D50CE0A0
:101A1000FFF7E6FB824605E0FFF7E2FBA0EB0A01D9
:101A200059454CD8286A8007F6D41FB1E86920F0E0
:101A30008050E861E06988B36968C1F381010229D7
:101A400044D00228C6F8608004D0FFF7C9FB0446E2
:101A500038E034E0FFF7C4FB074604E0FFF7C0FBC3
:101A6000C01B02282BD828688001F7D4206AB0F563
:101A7000803F05D16868A16820F4003008436860A1
:101A8000D4E908010843696821F4741108436860C7
:101A9000C6F86090FFF7A4FB044606E025E000BF0F
:101AA000FFF79EFB001B022809D828688001F7D5A4
:101AB0001BE000BFFFF794FB001B022802D90320A4
:101AC000BDE8F88F28688001F4D40EE00128F7D033
:101AD0006868226A00F48031914204D1616A00F49E
:101AE0007010884201D00120EAE70020E8E70000FA
:101AF00000100240000042428004424210000020D8
:101B00000070004010B5401EB0F1807F01D301206D
:101B100010BD4FF0E02460610F21601701F064F800
:101B20000020A06107202061002010BD7047704791
:101B3000F8B5016804460868CA684B6910F00F0FD1
:101B40004FF0000559D003F0010602F490773743B7
:101B500065D0C10705D0D10503D5616C41F0010105
:101B60006164410705D5D90703D0616C41F00201DA
:101B70006164810705D5D90703D0616C41F0040188
:101B80006164010707D502F02001314303D0616C85
:101B900041F008016164616C00293AD0800604D5E7
:101BA000900602D5204600F0F6FE20684069616C80
:101BB000C0F38010090700D460B3204600F0C4FED3
:101BC00020684069400621D52068143050E8001F85
:101BD00021F0400140E80012002AF5D1E06BA8B1E5
:101BE0006D494163E06BFFF7B9F9002811D0E06B54
:101BF000416B01B0BDE8F040084783060FD593065E
:101C00000DD52046BDE8F84000F0C5BE2046FFF7E0
:101C10008EFFF8BD2046FFF78AFF6564F8BD266B8E
:101C20002023012E7CD1C6067AD5D60678D5086841
:101C30004868009048694FF00206400640D5E16BC5
:101C4000086840680004000CE8D0A28D8242E5D903
:101C5000E085886920282DD020680C3050E8001FCE
:101C600021F4807140E80012002AF5D12068143078
:101C700050E8001F21F0010140E80012002AF5D1D0
:101C80002068143050E8001F21F0400140E80012A5
:101C9000002AF5D184F84230256320680C3050E8E2
:101CA000001F21F0100140E80012002AF5D1E06B7E
:101CB000FFF731F96663A08DE18D401A81B22AE009
:101CC000A08DE18D401A81B2E08D0028A6D00029B8
:101CD000A4D022680C3252E8000F20F4907042E841
:101CE0000007002FF5D12068143050E8002F22F0B3
:101CF000010240E80027002FF5D184F84230256327
:101D000020680C3050E8002F22F0100240E8002339
:101D1000002BF5D166632046FFF708FFF8BDFFE70B
:101D200005062BD5150629D594F841002128F5D1B3
:101D3000A068B0F5805F01D12069B0B1206A411C74
:101D40002162216800784860E08C401E0004000C8D
:101D5000E084E3D12068C16821F08001C16020687F
:101D6000C16841F04001C160D8E7206A0088C0F333
:101D700008004860206A801C2062E5E74006CDD557
:101D80005006CBD5CA68204622F04002CA6084F8CB
:101D9000413000F0FDF8C1E73929000870B50400B2
:101DA00004D094F84100002510B106E0012070BD78
:101DB00084F84050204600F023F8242084F84100A5
:101DC0002068C16821F40051C160204600F044FE43
:101DD0002068016921F4904101612068416921F086
:101DE0002A0141612068C16841F40051C160656405
:101DF000202084F8410084F842006563002070BD13
:101E000030B585B0002400940194029403940068D6
:101E1000184988422CD11848816941F48041816178
:101E2000816901F480410491816941F0040181617B
:101E30008069124D00F0040004904FF4007000908F
:101E4000022001900320039069462846FFF7D2F84C
:101E50002815CDE90004694628460294FFF7CAF820
:101E6000002211462520FFF7AFFB2520FFF79EFB40
:101E700005B030BD003801400010024000080140AC
:101E800090F84230202B01D00220704721B11AB1C6
:101E90000023036300F03CBE012070470068104936
:101EA00088421BD10F49104B08468A7800780A2ACD
:101EB0000CD00D2A0AD0132802D21A54401C0870E4
:101EC00008490122891C0948FFF7DABF0028F7D02A
:101ED00000221A54012048700A70F1E77047000090
:101EE00000380140000000202C0000209400002059
:101EF0002DE9F843044690F84100984616460D46F1
:101F0000202802D00220BDE8F88385B17EB10020F0
:101F10006064212084F84100FFF762F9A6848146BD
:101F2000E684A0682027B0F5805F02D003E001209E
:101F3000E9E7206910B12E4600250EE000260CE0EE
:101F40008021204600F0FFFDA8B9C6B116F8010BAC
:101F500021684860E08C401EE084E08C4B464FF0E6
:101F60000002CDF800800028EAD14FF04001204661
:101F700000F0E9FD40B184F841700320C3E735F873
:101F8000020BC0F30800E3E784F841700020BAE7D1
:101F90007047FEE701684A69D24352050FD46FF4D7
:101FA00080624A61002140F8301F20224273817311
:101FB000026942F0040202610173012070470020AF
:101FC00070470000F8B50446C06A1E460D46174625
:101FD000082807D0012805D010F5803F02D0206BDB
:101FE000122804D12068016841F480710160134611
:101FF00000224FF001112046009600F05DF840B13C
:1020000020680068C00502D54FF4007020640320EA
:10201000F8BD2069B0F5804F0ED00620216800EA97
:10202000D51040F0F000086133463A460B4920468F
:1020300000F08AF878B902E005F0FE0000E0E8B2AE
:1020400021680861054933463A46891F204600F059
:102050007BF80028DCD00120F8BD0000080001005A
:1020600070B516460D4604461EE02046FFF792FF67
:1020700008B1012070BD681C16D0FFF7B1F8801BB5
:10208000A84200D885B920684069C04340070BD5F5
:10209000002044F8300F20216173A073216941F0C2
:1020A000200121612073E4E720684069C0434007B4
:1020B000DBD4002070BD00002DE9F047984617469C
:1020C0000D460446C1F30746DDF820902AE000BF24
:1020D000B8F1FF3F26D0FFF783F8A0EB0901414597
:1020E00002D8B8F1000F1DD12068012E16D08069EA
:1020F00025EA00000004000C12D00020B84211D1E3
:10210000002044F8300F20216173A073216941F051
:102110002001216120730120BDE8F0874069E7E7D5
:102120000120EBE72068012E0AD0806925EA000033
:102130000004000C06D00020B842C9D00020EBE714
:102140004069F3E70120F7E72DE9F0479846164686
:102150000D4604464FF000094FF0200AC1F307472F
:1021600023E020684069C043400515D42068016819
:1021700041F40071016021686FF480604861C4F827
:10218000309084F83DA084F83E90216C41F0040129
:10219000216484F83C9021E0701C06D0FFF720F801
:1021A000A0EB0800B04203D816B1012F1FD021E0E8
:1021B0002068012F15D0806925EA00000004000C7A
:1021C00018D000BF44F8309F84F80DA084F80E901A
:1021D000216941F02001216184F80C900120BDE8C3
:1021E000F087406925EA00000004000CEAD120686D
:1021F000406901E02068806925EA00000004000CC5
:10220000AFD1ECE770B516460D4604461EE02046F9
:10221000FFF7C0FE08B1012070BD681C16D0FEF7A4
:10222000DFFF801BA84200D885B920684069C04301
:1022300000060BD5002044F8300F20216173A073F5
:10224000216941F0200121612073E4E720684069A1
:10225000C0430006DBD4002070BD00000449054ADD
:10226000002048601070143210700870FEF7D8BD5E
:1022700014000020DC0000202DE9F047254D2878CF
:10228000002844D1FEF7ACFF234C06464FF000096E
:10229000207810B3E068371A2069B84207D8A068E0
:1022A000686084F800901DA000F08EFC15E0FEF739
:1022B00049F880463846FEF745F84146FEF704F8EF
:1022C0000746D4E901804146FDF7C6FF3946FDF7D0
:1022D000C9FF4146FDF76EFF68600F481430017872
:1022E00069B141688268711A914208D3C5F80490B7
:1022F00080F8009084F800900CA000F065FCE8687D
:10230000301A142803D36868FEF78AFDEE60BDE832
:10231000F087000014000020DC0000203E3E205228
:10232000616D7020446F6E652E0D0A003E3E205494
:10233000696D6527732075702E2053746F707065FA
:10234000642E0D0A000000002DE9FF5F82460D217A
:10235000FDF70AFF002500B105700A215046FDF780
:1023600003FF00B105705146A3A000F02DFCA5A10C
:102370005046FDF70AFFA44CA44E04F114070028B0
:1023800034D0A3A15046FDF700FF4FF0010800280C
:1023900035D0307818B135709EA000F015FC3E2184
:1023A0005046FDF7E1FEDFF894B25FEA000978D00D
:1023B00089F80050504601F0A4F8FDF7EFFF82467F
:1023C00009F1010081467421FDF7CEFE07003AD0E5
:1023D0003D70484601F095F8FDF7E0FF8146781C16
:1023E00001F08FF8FDF7DAFF054633E03570257010
:1023F0003D7000207560FEF713FD91A015E0207878
:1024000008B93878B0B13078B0B13570FEF7E8FE71
:10241000B168401A217811B1E1680144E16039786E
:1024200011B179680844786089A004B0BDE8F05F14
:1024300000F0CABB89A0F8E786F80080FEF7D0FE5E
:10244000B0608FA0F1E7484601F05BF8FDF7A6FF0A
:1024500081465D4684F80080C4E901A98B4928467D
:10246000FDF700FFFDF773FF2061FEF7B9FEE060A6
:102470002846C6F804A0FDF77EFF06460F464846EC
:10248000FDF779FF04460D465046FDF774FF8DE8D1
:10249000F00002460B467EA000F096FBBDE8FF9FD1
:1024A000FFE72B215046FDF75FFE5FEA00092BD0C6
:1024B00089F80050504601F024F8FDF76FFF0546FB
:1024C000594609F1010000F0F5F90746784884F80B
:1024D0000080C4E901506D493846FDF7C3FEFDF7A1
:1024E00036FF2061FEF77CFEE06038467560FDF740
:1024F00042FF04460E462846FDF73DFFCDE9004663
:1025000002460B466BA02EE02D215046FDF72CFE17
:102510005FEA00092AD089F80050504600F0F1FF28
:10252000FDF73CFF0746594609F1010000F0C2F9EA
:1025300084F80080C4E9017581465449FDF792FE94
:10254000FDF705FF2061FEF74BFEE060484677602F
:10255000FDF711FF04460D463846FDF70CFF024615
:102560000B465CA033E000F02FFB97E77321504649
:10257000FDF7FAFD70B300F8015B5146D146824683
:102580000846FDF7FBFD30B1484600F0BAFFFDF705
:1025900005FF70602570504600F0B3FFFDF7FEFEAA
:1025A000044687F800803949FDF75CFEFDF7CFFE51
:1025B000B860FEF715FE78602046FDF7DCFE0446A5
:1025C0000D467068FDF7D7FE02460B4649A0CDE9DF
:1025D0000045C8E7504600F094FFFDF7DFFE70604D
:1025E00025703D70FDF7C7FE04B00246BDE8F05F00
:1025F0000B4649A000F0E8BA434D443A2025730D3C
:102600000A00000073000000DC000020140000201D
:10261000700000003E3E204E657720636D6420729E
:10262000656365697665642C2070617573652063E8
:10263000616E63656C6C65642E0D0A0000002041BC
:102640003E3E2053544F50202830290D0A000000F0
:102650003E3E20524553554D450D0A003E3E204E0C
:102660006F206163746976652070726F6365737340
:1026700020746F2070617573652E0D0A00000000D4
:102680003E3E205041555345440D0A0000007A4417
:102690003E3E2052616D703A20252E31662D3E253A
:1026A0002E31662028252E316673290D0A00000080
:1026B0000000C8423E3E2052616D702055703A20A5
:1026C000252E31662D3E3130302028252E3166737F
:1026D000290D0A003E3E2052616D7020446F776ED6
:1026E0003A20252E31662D3E302028252E31667366
:1026F000290D0A003E3E2054696D65723A205275DC
:102700006E20252E31662C2053746F7020696E2048
:10271000252E3166730D0A003E3E205365743A2023
:10272000252E31660D0A00001CB5B0F5805F01D37F
:1027300040F6FF7009B1602100E040218DF80410DF
:1027400001098DF8051000018DF806006420009045
:10275000032301AAC0210448FEF70CFE002802D082
:1027600002A000F031FA1CBD400000204572726FDB
:10277000723A20493243205472616E736D6974203D
:102780004661696C656420284E41434B290D0A005F
:102790002DE9F04186B0002424480094019402946D
:1027A0000394816941F010018161816901F0100198
:1027B0000491816941F020018161816901F020016A
:1027C0000491816941F004018161816901F0040192
:1027D0000491816941F0080181618069144F00F022
:1027E00008004FF400550490002229463846FEF7B1
:1027F000F1FCDFF84080002201214046FEF7EAFCB0
:102800000095022601250396CDE901546946384614
:10281000FEF7F0FB03960095CDE90154694640466A
:10282000FEF7E8FB06B0BDE8F081000000100240B2
:1028300000100140000801400D4810B50B4901602F
:102840000C49416000214FF480428160C0E90312CD
:1028500041618161C1610162FEF7C8FC002803D0BB
:10286000BDE81040FEF755BB10BD0000005400400D
:1028700040000020801A06000C4810B50A4901608B
:102880004FF4E1314160002181600C22C160C0E958
:1028900004128161C161FFF781FA002803D0BDE80D
:1028A0001040FEF736BB10BD0038014094000020F8
:1028B000FEE7FEE710B510B10278742A01D0084691
:1028C00010BD401C00F01DFEBDE81040FDF766BDC8
:1028D00070477047FEF712BE30B58FB028216846AA
:1028E000FDF737FC14210AA8FDF733FC0121080489
:1028F000CDE900100024029402250491CDE907508F
:102900004FF4E01009906846FEF76CFF08B172B60C
:10291000FEE70F20CDE90A054FF48060CDE90C40B9
:1029200002210AA80E94FEF781FE002801D072B69B
:10293000FEE70FB030BD704710B5406A0021C18579
:10294000C184FFF7F4F810BD01680C3151E8002F85
:1029500022F4907241E80023002BF5D10168143174
:1029600051E8002F22F0010241E80023002BF5D1AD
:10297000016B012909D101680C3151E8002F22F0C7
:10298000100241E80023002BF5D1202180F84210ED
:1029900000210163704708B590F84210222901D048
:1029A000022008BD82684FF480539A4201D1016928
:1029B00021B1816A9A421BD04AB10AE00268816A59
:1029C0005268C2F308020A80816A891C08E0026921
:1029D00072B10268526802F07F020A70816A491C73
:1029E0008162C18D491E0904090CC18503D01BE019
:1029F00002685268F1E70168CA6822F02002CA60E2
:102A00000168CA6822F48072CA6001684A6922F0CB
:102A100001024A61202180F8421000214163026BCB
:102A2000012A03D0FFF73AFA002008BD01630168CC
:102A30000C3151E8002F22F0100241E80023002B56
:102A4000F5D101680A68D20602D50A684968009182
:102A5000818DFFF76BF8E7E770B504460068016900
:102A6000E26821F44051114301612169A0680843E3
:102A7000616908432168CA6841F20C639A430243C2
:102A8000CA6020684169A26921F440711143416123
:102A90001E492068884202D1FEF76EFE01E0FEF773
:102AA0005BFE00EBC00101EB001260686421800056
:102AB000B2FBF0F3B3FBF1F36FF018067343B2FB14
:102AC000F0F5B2FBF0F605EB8305322303EB0515B9
:102AD000B5FBF1F5B6FBF1F605F0F00505EB0615D3
:102AE000B2FBF0F6B2FBF0F0B0FBF1F06FF01802C1
:102AF000504306EB800003EB0010B0FBF1F02168BF
:102B000000F00F002844886070BD000000380140CC
:102B100081628285C28500214164222180F84210B1
:102B2000016921B10168CA6842F48072CA60016813
:102B30004A6942F001024A610068C16841F020011F
:102B4000C160002070472DE9F843984617460D46AE
:102B50000446089E24E0701C22D0FEF741FBA0EB47
:102B60000800B0421AD8CEB12068C168490717D50D
:102B7000802D15D0402D13D00168C94309070FD40B
:102B800001680025406800902046FFF7DDFE082020
:102B9000606484F840500120BDE8F8830320FBE71F
:102BA0002068006835EA000004D00020B842D2D086
:102BB0000020F1E70120F9E70148FEF7B9BF000066
:102BC00094000020FEE700000FB4054B10B503A9E8
:102BD000044A029800F0FEF810BC5DF814FB0000F7
:102BE0002D350008240000200907090E002804DB09
:102BF00000F1E02080F80014704700F00F0000F1B1
:102C0000E02080F8141D70470148006870470000FC
:102C10002800002002E008C8121F08C1002AFAD1CB
:102C200070477047002001E001C1121F002AFBD14C
:102C3000704700000149086070470000280000202C
:102C40002DE9FF5F82B00021DDE90430020DDDF8DF
:102C500040B0034318D044F61050A2F2FF32424372
:102C60001514119801281FD0A5EB0B00401C5FEA3A
:102C7000000A4FF000064E4FDFF83891B04650463C
:102C800015D5CAF1000413E0119801244AA30128C4
:102C900001D16FEA0B010298119AC0E90031C0E935
:102CA000024206B0BDE8F09FCBF10000DFE704462A
:102CB0000021404A491842EB0450CDE9001012E0CF
:102CC000E00707D032463B4640464946FDF710FD37
:102CD0008046894632463B4610461946FDF708FDB8
:102CE00006460F466410002CEAD1DDE90401DDE957
:102CF0000023BAF1000F06DAFDF7FAFC42464B4614
:102D0000FDF7F6FC05E0FDF765FD42464B46FDF795
:102D100061FD04460E460022284BFDF7E3FD03D873
:102D20004FF0FF30014607E00022254B2046314698
:102D3000FDF737FCFDF7BDFD102409E0002C0ADB90
:102D40000A220023FDF770FB039B30321A55641EE4
:102D500050EA0102F2D1641C039AC4F11103144435
:102D6000119A012A03D0012208430DD10AE0084339
:102D700004D000204FF0110B119072E7A3EB0B056C
:102D80006D1E0DE05B4504DD4FF0000205F101050D
:102D900004E003DA4FF00002A5F10105002AECD0AF
:102DA00002981199C0E90231C0E9004579E70000B5
:102DB000000014400000F03F300000000000F0432D
:102DC0000000E03F30380A2801D20120704700207F
:102DD000704700002DE9FF4F95B09B468946064697
:102DE00000250FE2252877D100242746F84A012143
:102DF000059400E0044316F8013F203B01FA03F07C
:102E00001042F7D130782A2811D06FF02F03307894
:102E1000A0F13002092A16D8059A44F0020402EB08
:102E2000820203EB42021044761C0590EFE759F84A
:102E3000042B0592002A03DA504244F40054059012
:102E400044F00204761C30782E2816D116F8010FB3
:102E500044F004042A280DD06FF02F023078A0F13E
:102E60003003092B09D807EB870302EB4303C7188C
:102E7000761CF3E759F8047B761C30786C280FD069
:102E800006DC4C2817D068280DD06A2814D104E03D
:102E9000742810D07A280FD10DE044F400140AE011
:102EA00044F4801401E044F440147278824202D168
:102EB00004F58014761C761C307866280BD013DC61
:102EC000582877D009DC002875D04528F6D0462848
:102ED000F4D047281AD19DE118E0632835D0642842
:102EE00079D0652812D195E1702873D008DC672865
:102EF000F1D069286FD06E280DD06F2806D1B5E0CB
:102F000073282CD0752875D0782874D05A46179914
:102F100090476D1C75E1C4F30250022809D00328C4
:102F20000DD0D9F8001004280DD00D6009F1040966
:102F300067E1D9F80010EA17C1E90052F6E7D9F8BD
:102F400000100D80F2E70D70F0E719F8041B8DF802
:102F5000001000208DF80100EA46012003E059F836
:102F600004AB4FF0FF3061074FF0000102D40DE0D9
:102F700008F101018846B9420FDA8045F8DB1AF8FA
:102F800008100029F4D108E008F1010188468142C7
:102F9000FADB1AF808100029F6D105985B46A0EB79
:102FA000080721463846179A00F094FA284400EBA7
:102FB000080507E04DE029E10DE01AF8010B5A463B
:102FC00017999047B8F10108F7D25B462146384679
:102FD000179A13E142E00A220092C4F302524FF022
:102FE000000A022A08D059F804CB032A4FEAEC71F0
:102FF0000AD00DE029E02AE009F1070121F00702DB
:10300000F2E802C1914609E00FFA8CFC4FEAEC713C
:10301000042A03D14FFA8CFC4FEAEC71002907DA3D
:103020000A460021DCF1000C61EB02012D2202E0D6
:10303000220504D52B228DF80420012203E0E207AB
:1030400001D02022F7E7904659E00A2102E0102241
:103050000DE010214FF0000A00910BE010224FF01C
:10306000000A44F004040827009203E008224FF00D
:10307000000A0092C4F30252022A05D059F804CB88
:103080000021032A08D009E009F1070121F0070215
:10309000F2E802C1914605E01FFA8CFC042A01D136
:1030A0000CF0FF0C4FF00008220728D5702806D03E
:1030B000009B83F0100353EA0A0305D00EE0402280
:1030C0008DF80420012208E05CEA010206D03022DB
:1030D0008DF804208DF8050002229046009B83F0B5
:1030E000080353EA0A030AD15CEA010201D162072C
:1030F00005D530228DF804204FF001087F1E582896
:1031000004D034A003900EA802900DE036A0F9E799
:1031100053466046009AFDF787F984460398825C1F
:103120000298401E029002705CEA0100F0D1029801
:1031300006A9081A00F1200A600702D524F4803499
:1031400000E00127574502DDA7EB0A0000E0002060
:1031500000EB0A01009005984144401A0590E003F5
:1031600006D45B462146179A059800F0B3F905444A
:10317000002706E001A85A46C05D179990476D1CCC
:103180007F1C4745F6DBE0030CD55B462146179ACA
:10319000059800F09FF9054404E030205A4617993D
:1031A00090476D1C0099481E00900029F5DC08E04E
:1031B000029802995A460078491C02911799904743
:1031C0006D1CBAF10001AAF1010AF1DC65E1000011
:1031D00009280100303132333435363738396162ED
:1031E00063646566000000003031323334353637B1
:1031F00038394142434445460000000000F058F988
:103200000544761C307800287FF4ECAD19B02846D0
:10321000BDE8F08F620700D4062709F1070222F00B
:10322000070CFCE80223E14603F000485FEA080CC3
:1032300002D00FF2702C0DE05FEA045C02D50FF2B1
:10324000682C07E05FEAC47C02D00FF2602C01E03A
:10325000AFF2700C4FF0FF3823F00043CDF850C0B0
:1032600065280CD006DC452809D046281DD0472803
:103270003DD13DE0662818D067287ED138E0002196
:10328000112F01DB112000E0781CCDE9000106A917
:103290000EA8FFF7D5FCDDE90F010E9A039100217E
:1032A000009207F1010A04914DE04FF000400097B1
:1032B000CDE9011006A90EA8FFF7C2FCDDE90F0257
:1032C00003920E9B11990022DDF80CA0009304924A
:1032D00011B9791C00EB010AB7EB0A0004D4C0F164
:1032E000FF3007F1010A0490AAEB0700019044E0C7
:1032F000012F00DA01270021112F01DD112000E04C
:103300003846CDE9000106A90EA8FFF799FCDDE9D2
:103310000F010E9A0391002104910092BA462107F1
:103320000CD40399514500DA8A46BAF1010F05DD44
:10333000009AAAF10101515C302908D0B84202DAA2
:1033400010F1040F06DA0121CDE9011015E0AAF110
:103350000101E9E7002805DC049901440491AAEB86
:10336000000102E0411C514500DD8A460499401AE3
:10337000401C01904FF000400290200704D40198B7
:10338000504501DBCDF8048000208DF84F000298F5
:103390000DF14F07B0F1004F25D02B200E90029871
:1033A0004FF0020800280CDA404202902D200E90C7
:1033B00007E00A210298FDF721F83031029007F862
:1033C000011DB8F10001A8F10108F2DC0298002803
:1033D000EFD1791E0E980870307800F0200040F090
:1033E000450007F8020D12A8C01B00F10708149849
:1033F000007800B1012000EB0A01019801EBE071B7
:1034000005984144401A401E0590E00306D45B46EF
:103410002146179A059800F05DF805441498007845
:1034200018B15A46179990476D1CE00324D55B46A6
:103430002146179A059800F04DF805441CE00498C1
:10344000002807DBDDE90301884203DD0098405CCA
:10345000179901E0179930205A469047049805F1D2
:103460000105401C04900198401E019004D12E20BB
:103470005A46179990476D1CBAF10001AAF1010A4A
:10348000DDDC05E017F8010B5A46179990476D1CD3
:10349000B8F10001A8F10108F4DC5B462146179A57
:1034A0000598ABE62D0000002B0000002000000076
:1034B0002DE9F041044600251E461746880404D431
:1034C00005E039462020B0476D1C641EF9D528461A
:1034D000BDE8F0812DE9F041044600251E469046E6
:1034E000C80301D5302700E02027880404D505E073
:1034F00041463846B0476D1C641EF9D52846BDE8E4
:10350000F08130B583B00446FFF77EFB054600200E
:10351000CDE90000024621466846FCF7D8FF284660
:10352000FFF788FBDDE9000103B030BD13B564236C
:10353000012269460248FEF7DBFC00981CBD000032
:1035400094000020FDF7E2FFFFF7C6F9FFF720F92E
:10355000FFF772F9FFF790F90AA0FFF735FBFEF7C6
:103560007DFE012213491448FEF78AFC114C002508
:10357000A41E607818B165701048FEF7E5FEFEF7EE
:103580007BFEF6E753797374656D20537461727432
:1035900065642E20506C6561736520656E7465727C
:1035A0002073706565642028302D313030293A0D44
:1035B0000A00000002000020940000202C000020DF
:1035C000010202030405060708090A0B0C0D0E0F81
:1035D00010100000000000000000010203040607B4
:1035E00008090000000001020304000000000000C0
:1035F000000020416666A2419A99F541CDCC244253
:1036000000004E429A99774233339042CDCCA44287
:103610009A99B94200000000000020410000A0413A
:103620000000F041000020420000484200007042CB
:1036300000008C420000A0420000B442DDDDDDDD70
:10364000DCBBBBDDDDDDDDDDDDDDDDDD9888888833
:1036500088888888777777777788888885555556DA
:103660006666666666666666666888888333333231
:1036700022222222222222222228888D9C36000801
:10368000000000202C000000142C0008C8360008A0
:103690002C000020D4040000242C000800000000AE
:1036A00001000000100000000000000000127A007D
:1036B000000000000000000000000000000000000A
:0836C000000000000000000002
:04000005080000ED02
:00000001FF
